:100000000000022005020000310200003102000061
:100010003102000031020000310200003102000014
:100020003102000031020000310200003102000004
:1000300031020000300200003102000031020000F5
:100040003102000031020000910500001908000093
:1000500031020000654D0000310200003102000055
:1000600031020000310200003102000031020000C4
:10007000310200005D080000310200003102000082
:1000800031020000310200003102000031020000A4
:100090003102000031020000310200003102000094
:1000A0003102000031020000310200003102000084
:1000B0003102000031020000310200003102000074
:1000C0003102000031020000310200003102000064
:1000D0003102000031020000310200003102000054
:1000E0003102000031020000310200003102000044
:1000F0003102000031020000310200003102000034
:100100003102000031020000310200003102000023
:100110003102000031020000310200003102000013
:100120003102000031020000310200003102000003
:100130003102000031020000494A00003102000093
:1001400031020000310200003102000031020000E3
:1001500010B5054C237833B9044B13B10448AFF301
:1001600000800123237010BD9800002000000000D3
:100170006C71000008B5034B1BB103490348AFF392
:10018000008008BD000000009C0000206C71000091
:10019000154B002B08BF134B9D46A3F5803A002159
:1001A0008B460F461348144A121A05F0C3FB0F4B37
:1001B000002B00D098470E4B002B00D09847002012
:1001C000002104000D000D48002802D00C48AFF3B8
:1001D000008005F083FB2000290005F007FA05F0F8
:1001E00057FB00BF000008000000022000000000D4
:1001F0000000000098000020F80700200000000028
:1002000000000000064880470649074A074B9A420B
:10021000BEBF51F8040B42F8040BF8E7FFF7B8FF34
:10022000BD0200007871000000000020980000204E
:10023000FEE700BF0048704700A24A040F4BD3F806
:10024000943003F00703032B14D0042B0FD0022BA0
:100250000AD00B4B1868094BD3F80031C3F30423C1
:100260000133B0FBF3F07047064B1868F3E7064B19
:100270001868F0E74FF40040EDE700BF00400E4083
:1002800008000020040000200C00002008B5FFF743
:10029000D5FF054B054AD3F80831C3F308230133D2
:1002A000B0FBF3F0106008BD00400E4000000020DD
:1002B000014B1868704700BF04000020014A024B40
:1002C0009A6070470000000000ED00E04FF400402D
:1002D000704700BF4FF47A70704700BF014B186839
:1002E000704700BF0C0000202DE9F04F594C064626
:1002F000207885B014469DF84C909DF84420002845
:1003000065D0032C5FD80F460E9900295BD00F995A
:10031000002958D01299B1F5006F54DC012E4FD04E
:10032000DFF844814FEA041E08EB0E01097B002927
:1003300051D00020484D6101CDE90100039005EB4B
:10034000010C002F49D16F509CF802A09CF80300CB
:100350004AF0100A40F03000CCE90177CCF80C707C
:100360008CF802A08CF80300002A66D0129A685A12
:10037000013A62F30E10685200930D440E9BEA7826
:10038000AB600F9B69F38302012E6B60EA703ED075
:10039000149B002B57D00025149B204648F80E30A4
:1003A000159BC64462466946CEF804308EF80D604F
:1003B000CEF8085000F06AF9284605B0BDE8F08F85
:1003C00010990029ACD1254805B0BDE8F08F24482C
:1003D00005B0BDE8F08F2348F6E768509CF802B0FE
:1003E0009CF803A04BF0100B4AF0030ACCE9010083
:1003F000CCF80C008CF802B08CF803A0002AB5D120
:100400005FFA8AF242F030028CF80320AEE7132242
:100410006FF0030AEA6005F1100995E80F0089E81A
:100420000F00EA69109B6AF39F02012FEA616B617A
:10043000B1D1109BA9616B60ADE7C2B242F003027B
:100440008CF8032092E7AB78149A62F30413AB7034
:10045000A1E700BF74010020F4000020018000F03B
:10046000028000F0078000F0B4000020114B1B78E0
:100470008BB190B170B5054602F07CFD0E490023AA
:100480000A46147B103254B10133042BF9D102F027
:1004900075FD0A4870BD0A4870470A487047012632
:1004A0002B601B01CA18CC50167302F067FD204662
:1004B00070BD00BF74010020B4000020048000F073
:1004C000028000F0018000F0002310B5124A82B0D3
:1004D000126801928DF8043002F04CFD0F4B1C782D
:1004E000A4B901221A7002F049FD04220C4B0DEB55
:1004F00002001C731C7783F82C4083F83C408DF875
:10050000072000F07FF8204602B010BD02F036FD53
:10051000044802B010BD00BF286C00007401002028
:10052000B4000020038000F0F0B5002489B00F9DD6
:100530009DF83870019300929DF840600B4602468A
:1005400002942146CDE903752046119D129C059623
:10055000CDE90654FFF7C8FE09B0F0BDF0B50024A0
:1005600089B09DF8387001930F9E00929DF840501D
:100570000B460246129902942046119C079103975C
:100580000496CDE905540121FFF7AEFE09B0F0BD98
:100590002DE9F843184E326EF36E12EA03081CD4AC
:1005A00001270025154CDFF8589018EA070F0BD0EB
:1005B0002368B76643B1D4E901210131A16028461F
:1005C0009847637B012B09D00135042D4FEA47077B
:1005D00004F11004E9D1BDE8F883FEE70028F3D167
:1005E00009EB4513197B1A7F60F3410160F3410267
:1005F00019731A77E8E700BF00200040B40000201C
:10060000F4000020F8B50446002832D023781B06F9
:1006100013F0604F28D1E378072B03D9A82117489E
:1006200003F086FF0121164801F0C4F804250020DC
:100630004FF000474FF0FF36B4F8013022785BBA34
:100640009BB243EA02630F490F4A13601062D06203
:100650005063D7669666C1F88051E3785B01DBB2E0
:1006600081F802330D60F8BD9821044803F060FF63
:10067000D1E79621014803F05BFFC7E72C6C00002F
:1006800000750A0000E100E0002000402DE9F04183
:100690000126C3B2172805460C46174606FA03F68C
:1006A00062DC002C66D0236823F47C1323F00F0354
:1006B000002B6AD1A37A1B0413F47C0F6ED1E37A6A
:1006C0001B0513F07E6F73D1237B5A0512F0FE5F7A
:1006D00078D1DFF80081617B236805EB450508EBE5
:1006E0000515C5F88030C5F88810E37AA17A1B0596
:1006F00043EA0143134327F00307C5F88430C5F8E4
:100700009870C8F8686002F035FCD8F86C30227A2E
:100710003343C8F86C3022B1D8F834303343C8F8CA
:100720003430637A1BB12B4AD36A3343D362294BEB
:1007300022791B6822B1D243120262F47F42134035
:1007400062790AB143EA0223A2790AB123EA0203D9
:10075000E27902B113431F4A1F4913600E60D6634A
:10076000BDE8F04102F00ABCF9211C4803F0E0FEAC
:10077000002C98D1FA21194803F0DAFE236823F4FB
:100780007C1323F00F03002B94D0FF21134803F0B8
:10079000CFFEA37A1B0413F47C0F90D040F2171104
:1007A0000E4803F0C5FEE37A1B0513F07E6F8BD075
:1007B00040F21911094803F0BBFE237B5A0512F0E1
:1007C000FE5F86D040F21B11044803F0B1FE237B8C
:1007D0005A057EE700200040282000442C6C0000D1
:1007E0004FF400510822044BC3F880111960C3F87C
:1007F00080211A60704700BF00E100E038B5044670
:100800000D4602F0B7FB034B43F82450BDE83840D7
:1008100002F0B4BB7801002045F255520D4B70B583
:10082000D3F82844D3F81C140C401440C3F82444D3
:100830007CB10126084D94FAA4F0B0FA80F055F886
:10084000203006FA00F224EA020403B19847002C93
:10085000F1D170BD00800840780100204AF6AA223C
:100860000D4B70B5D3F82844D3F81C140C40144039
:10087000C3F824447CB10126084D94FAA4F0B0FAE0
:1008800080F055F8203006FA00F224EA020403B1A1
:100890009847002CF1D170BD0080084078010020FD
:1008A0000123416480F85030704700BFBB4A0368A1
:1008B00030B4934200F09780B94A934278D0B94A55
:1008C000934200F0D381B84A934200F06782B74A5E
:1008D000934200F0C380B64A934240F07482047998
:1008E000002C40F0768304230B704279002A00F03C
:1008F000DB83012A00F02884022A00F06A84032A9C
:100900000CBF0723FF238B708579002D00F0CA836D
:10091000012D00F01C84022D00F06184032D0CBF1A
:100920000723FF230B71C379002B00F0B983012B40
:1009300000F01084022B00F04684032B0CBF07202C
:10094000FF208871002C00F0A983012C00F0FA83AD
:10095000022C00F03B84032C0CBF0A20FF204870BF
:10096000002A00F09983012A00F0EA83022A00F0AD
:100970002784032A0CBF0B22FF22CA70002D00F02F
:1009800087836A1E012A40F2D983032D0CBF0C22F3
:10099000FF224A71002B00F06481012B00F0FC81E2
:1009A000022B00F0A783032B0CBF0D23FF2359E17B
:1009B0000479002C41D102230B704579002D00F001
:1009C0006A816B1E012B40F27D83032D00F056835C
:1009D000042D00F06081052D00F02884062D14BF41
:1009E000FF23002358E10279012A16D804230B7053
:1009F0004379012B40F2AA80022B00F04783032B9E
:100A000000F0A480042B00F09783052B00F03E83B8
:100A1000062B0CBF0624FF2499E0022A00F0348341
:100A2000032AE3D0042A00F08383052A00F02C83F4
:100A3000062A0CBF0623FF23D9E7631E012B40F2D1
:100A40004583032C00F01883042CB4D0052C00F04F
:100A5000EF83062C14BFFF230023ADE70379002B9F
:100A600040F0D08201220A704479002C00F02883E3
:100A7000012C00F07783A21E012A40F2B983042CD6
:100A80000CBF0722FF228A708279002A00F01683A9
:100A9000012A00F06B83951E012D40F2A383042AE6
:100AA0000CBF0725FF250D71C079002800F00483D5
:100AB000012800F06183851E012D40F29B830428EC
:100AC0000CBF0725FF258D71002B00F0F382012B51
:100AD00000F05083022B00F08783032B00F0B583D6
:100AE000042B18BFFF234B70002C00F0E182012C77
:100AF00000F03E83022C00F07983032C00F0A183E8
:100B0000042C0CBF0523FF23CB70002A00F0CE82FB
:100B1000012A00F02983022A06D0032A00F09383D9
:100B2000042A0CBF0622FF224A71002800F0E0814F
:100B3000012800F0DF82022800F04381032800F042
:100B40000F8304280CBF0723FF238BE004248C7041
:100B50008479012C0ED9A51E012D40F2C582042CEA
:100B600000F09082052C00F02983062C0CBF06258E
:100B7000FF2500E004250D71C07901281AD9851ED2
:100B8000012D40F2A982042800F07A82052800F0A5
:100B90000F8306280CBF0625FF250CE0000001404E
:100BA0000004014000080140000C01400010014019
:100BB0000014014004258D719AB1012A00F09A8138
:100BC000022A00F08B82032A00F04482042A00F0FB
:100BD0009181052A00F0EE82062A0CBF0C22FF222A
:100BE00000E00A224A709BB1012B00F0EE81022B3B
:100BF00000F07882032B00F02B82042B00F09A8205
:100C0000052B00F0D982062B0CBF0D23FF2300E03B
:100C10000B23CB7094B1012C00F0D981022C00F091
:100C20005F82032C00F01282042C00F07F82052CDE
:100C300004D0062C0CBF0E23FF2300E00C234B71C5
:100C400078B1012800F0C880022822D0C31E012BF1
:100C500040F2A280052804D006280CBF0F23FF23F2
:100C600000E00D230020CB7130BC70470279002AD0
:100C700000F0B480012A00F0DD81931E012B40F2C8
:100C80004982042A00F0CE82052A14BFFF230523DF
:100C9000A5E00823E6E702238B70827982B1012A5E
:100CA00000F01682022A00F0CD81D31E012B40F203
:100CB0003B82052A04D0062A0CBF0423FF2300E050
:100CC00001230B71C3798BB1012B00F0FD81022B45
:100CD00000F0B681D81E012840F21E82052B00F0DC
:100CE000A382062B14BFFF20012000E00120012C6D
:100CF000887110D9022C00F0A181032C00F0108221
:100D0000042C00F04F82052C00F09982062C0CBFB9
:100D10000E20FF2000E00020012D487010D9022D88
:100D200000F09281032D00F0F981042D00F03E8245
:100D3000052D00F08282062D0CBF0220FF2000E06E
:100D40000120C8709AB1012A00F0C481022A00F083
:100D50007381032A00F0E681042A00F02582052A27
:100D600000F06982062A0CBF0522FF2200E007225C
:100D70004A71002B8DD0012B23D0022B00F0B881BB
:100D8000032B09D0042B00F0B781052B24D0062BB0
:100D90000CBF0223FF2365E70E2363E70379002BD3
:100DA00000F0AA80012B00F05F81022B00F0EA81A5
:100DB000DA1E012A40F22682052B0CBF0822FF22F0
:100DC0009BE003234EE7B3484EE702234B71002A12
:100DD000F7D0012A40F00881042343E702230B7077
:100DE000457975B1012D00F02381AB1E012B40F236
:100DF0008581042D00F00C82052D14BFFF230523EF
:100E000000E002238B70847974B1012C00F00E8114
:100E1000A31E012B40F27481042C00F0FF81052CED
:100E200014BFFF23052300E002230B71C37983B1B4
:100E3000012B00F0F380022B00F06A81032B00F0FD
:100E4000ED80042B00F0EC81052B14BFFF20052062
:100E500000E00220887182B1012A00F0E180022ABC
:100E600000F05081032A00F09781042A00F0D2811B
:100E7000052A14BFFF22002200E002224A7085B139
:100E8000012D00F0CF80022D00F04081032D00F0F5
:100E90008781042D00F0C081052D0CBF0122FF22A7
:100EA00000E00322CA7084B1012C00F0BD80022C46
:100EB00000F02A81032C00F07181042C00F0A6813F
:100EC000052C0CBF0222FF2200E004224A717BB1F4
:100ED000012B00F00B81022B00F0CC80032B00F0E3
:100EE0004F81042B00F03C81052B18BFFF23B9E68E
:100EF0000523B7E6072275E61A460A70457975B1EB
:100F0000012D00F0AF80022D00F03E81EA1E012A83
:100F100040F27681052D0CBF0822FF2200E02A4610
:100F20008A70847964B1621E012A40F2A180E21EB7
:100F3000012A40F26981052C0CBF0822FF2200E043
:100F400022460A71C27972B1012A00F08780901E90
:100F5000012840F21F81042A00F07981052A0CBF84
:100F60000820FF2000E0104688716BB1012B73D080
:100F7000022B00F00B81032B6ED0042B00F0698153
:100F8000052B0CBF0C23FF234B704DB16B1E022BA6
:100F90006CD9042D04D0052D0CBF0D23FF2300E0D8
:100FA0000123CB70002C3FF410AF012C58D0022C41
:100FB00000F0EE80032C00F02181042C3FF405AFFB
:100FC000052C0CBF0E23FF2300E7062321E6052393
:100FD00035E6012C00F0C180022C00F0FD80032CCE
:100FE0000CBF0723FF237FE4022A3FF4D5AE032A78
:100FF00000F08280042A3FF4E4AE052A0CBF0F23E0
:10100000FF232FE6012B00F0B9809A1E012A40F23F
:10101000F380042B0CBF0722FF2224E5012019E7EF
:1010200003222BE704223DE705224FE72346FCE697
:101030002B46E7E61346D2E6002299E607206BE648
:10104000052054E605233CE606207AE60F23F6E564
:101050000C23DEE50D22C5E5062395E7042083E792
:101060000723B3E604225BE7042246E7072398E759
:10107000032266E70A23F5E505239DE405230BE635
:10108000012598E5012576E50223B0E402245EE51A
:101090000B227EE4022000F009226EE408205EE4C8
:1010A00001204EE401233DE404232CE404223BE52B
:1010B000082329E5072316E5022504E50225F2E4C5
:1010C0000122E0E40323E7E5032010E6032373E4B1
:1010D0000323F6E502224BE602256CE50B2281E5AF
:1010E0000923ACE50A2394E5022544E50623B9E586
:1010F0000123B7E50C23B5E50023B3E5002381E622
:10110000002392E60722B9E60922DFE60822C9E6B3
:1011100000209FE6002362E60220E8E5072010E6B3
:101120000620F9E50F2223E60223CAE50D2386E512
:1011300001235CE408236CE5012408E50D2228E482
:1011400007221AE406200AE40023FFF7DCBB03238E
:10115000FFF7E8BB0320FFF7F4BB0023FFF7C4BB96
:1011600009237FE503228EE40B22DDE403259AE4C4
:101170000A23C9E40923B6E40325A4E4032272E4A4
:101180000B236FE50122B8E60122C9E60323FBE643
:1011900004231BE60220E7E60D226FE60F2295E608
:1011A0000E227FE60120B7E50322E1E50220C8E533
:1011B000002500E5002215E501232AE50025DAE4F3
:1011C0000122FFF7DABB0520FFF7BBBB0F20FFF7BB
:1011D000C6BB0123FFF797BB0523FFF785BB05239C
:1011E000FFF7A0BB08255EE400237CE401238BE429
:1011F000082248E4082566E4082234E40823E5E5EB
:1012000006228DE6062278E606229AE608225DE6A8
:101210000523F7E5062231E6072243E6052304E627
:10122000052017E60523DAE5042060E5002333E511
:101230002346FFF7C1BB0B229AE5002081E502207F
:101240006AE5072360E408226EE406234BE40620E7
:101250008AE6002398E600BF38B5144601F08AFEFE
:101260000021E36A0546616484F84810A16313B164
:10127000626B20469847284601F080FE012038BD69
:101280002DE9F0430446904600264FF4406502687D
:10129000C06887B00828C4F8348084F85060894654
:1012A000D560E36228D90126092819BF02F1240379
:1012B00002F13C0502F1180302F130050027114A42
:1012C000A16A206A0392049404F13002CDE90186F8
:1012D0000097FFF743F94FF0010C616AE0694B4654
:1012E000CDE90377CDE901862A46CDF800C0FFF7A6
:1012F0001BF907B0BDE8F08302F11C0302F13405CD
:10130000DCE700BF5912000038B5054601F032FE97
:1013100095F8483043B903F0FF04012385F84830BD
:1013200001F02CFE204638BD01F028FE004838BDF3
:10133000032000F010B50446022001F04BFE48B136
:1013400094F850302BB9FFF723F994F85030002B64
:10135000F9D010BD94F85030002BFAD194F85030E9
:10136000002BF7D0F5E700BFF0B5064689B0A74DD2
:1013700002AC0F460FCD0FC495E8030084E80300CC
:10138000002E00F0D980F7B154220021304604F03D
:10139000D1FA3B689E4A3C469342354617D09D4A57
:1013A000934200F0D9809C4A934200F0E2809B4A2D
:1013B000934200F0B9809A4A934200F01F81994A03
:1013C000934200F00681984C204609B0F0BD4FF4DE
:1013D0004021964A964BB162F264736227462E46CC
:1013E0000FCF0FC697E8070086E80700637D012B43
:1013F00008BF8DF81630A37D4BB1012B00F0B480EF
:10140000022B00F0E180032BDDD14FF44073ADF8E7
:101410001830237D0121012B06BF00224FF47A737F
:10142000A368844808BF8DF81520049300F0C2F922
:101430000121814800F0BEF90121E86C00F0BAF901
:10144000E3681A1F0C2ABED8033B02A920688DF856
:10145000143002F03DF96369226823F47F0323F41A
:101460007F431BB9136843F4803313602379A17958
:10147000E67D1B0209066079002E61D10F26E47912
:101480000B43916F034343EA044301F0F8310B43EC
:101490009367566769462846FFF708FA044600280E
:1014A00092D19DF806209DF807302E7DC5E90F23C7
:1014B0009DF800009DF80110002E62D133460422F1
:1014C00001F0CAFE334601229DF803109DF8020088
:1014D00001F0C2FEAB7D0422012B94BF33460123F1
:1014E0009DF805109DF8040001F0B6FEEB7D002B81
:1014F0007CD001F03FFD514B1A78002A71D001F0E9
:101500003DFDFEF7E1FF002105F11C00FEF7AEFFF7
:1015100040B9014605F12000FEF7A8FF0446002867
:101520003FF452AF464C4FE74FF47021454A464BCB
:10153000B162F264736251E7444C204609B0F0BDD9
:101540000B240B43916F034321F0072121F0070186
:101550000B43936754679DE74FF450213C4A3D4B42
:10156000B162F264736239E74FF40073ADF818307A
:101570004FE74FF46021384A384BB162F26473622E
:101580002CE72346012201F067FE234604229DF842
:1015900003109DF8020001F05FFEAB7D0222012BDB
:1015A00094BF234601239DF805109DF8040001F027
:1015B00053FEEB7D002B9CD101230222296C95F870
:1015C0003C0001F049FE94E74FF48073ADF8183009
:1015D0001FE74FF48811224A224BB162F264736212
:1015E000FCE601221A7001F0C9FC8AE701230422FB
:1015F000296C95F83C0001F02FFE7AE74FF480113A
:10160000194A1A4BB162F2647362E7E6446C000057
:10161000000001400004014000080140000C0140AE
:101620000010014000140140022000F0007204008C
:1016300001000C004041050000550A00B8010020DF
:10164000092000F000A2040001000F00012000F0BA
:101650000082040001000D000092060001000E004F
:1016600000C204000100110000B2040001001000DB
:1016700070B5047D012C18D051B14AB1B2F5006F9C
:1016800006DC15460E460446FFF73EFE10B170BD5F
:10169000074870BD2A463146064B2046FFF7F0FD4D
:1016A0002046FFF747FE606C70BD034870BD00BF69
:1016B000022000F0A1080000082000F010B54FF053
:1016C000804300245B682246124BC9B206E0013217
:1016D000072A03F1080314D013F8084C8C42F6D102
:1016E00053F80C4C8442F2D30B4B03EBC2025379F8
:1016F0001A064FF080414B6823F0407313434B6050
:1017000010BD40F61661054802F012FF4FF040721E
:10171000EFE700BF486D00003C6D0000286D000041
:1017200038B54FF0804441F67133256C2364FEF7E1
:1017300081FD0021FFF7C2FF0DB10023236438BDF6
:101740004FF0804341F6713270B50C461E6C1A643E
:101750000546FFF7B3FF114B114A022C08BF134691
:101760009D4211D90F4B104A10499D4211600ED96C
:101770006CB94FF08C434FF480521A601EB14FF099
:10178000804300221A6470BD094B084A1A604FF06A
:1017900088434FF480521A60F0E700BF80D54302BF
:1017A0000024F40080F0FA02000100460202020068
:1017B00000010044C0F30323013B30B40E2B55D885
:1017C000DFE803F04C2054545047420832383C289C
:1017D000542E24004FF48075C0F304332648274A62
:1017E000D2F84441E40704D530BC184480000160BD
:1017F0007047D2F840412C42F6D0D2F840412C42FA
:10180000F7D1F1E7C0F304331D48EDE7C0F304332B
:101810001C48E9E7C0F3043381F001011A48E3E70B
:10182000C0F304331948DFE7C0F304334FF48035C5
:101830001748D4E7C0F304331648D5E7C0F30433A0
:1018400081F001011448CFE7C0F304331025134899
:10185000C5E7C0F3043301251148C0E7C0F30433E2
:101860001048C1E7C0F304330F48BDE741F2A1318E
:1018700030BC0E4802F05CBE6007F21000400E4023
:101880000006F210800FF210200BF2102006F2106A
:101890008007F210800AF210000BF2104007F210DD
:1018A0000007F2100000F2108005F210286D000011
:1018B00000F00F00013808B50B2800F28D80DFE83A
:1018C00000F013212F3B434B8B557A637106524B2B
:1018D000D3F8F03103F00703052B00F29A80DFE81C
:1018E00003F0868496908C884B4BD3F8943003F0A9
:1018F0000703023B052B00F28480DFE803F0767AD1
:101900007E867884444BD3F8800000F007000228DC
:1019100005D0042867D001280CBF0320012008BD92
:101920003D4BD3F8843003F00703013B032B70D801
:10193000DFE803F05F636559374BD3F88C0000F0A4
:1019400007000228E5D108BD334BD3F8880000F02A
:1019500007000228DDD108BD2F4B1B6F13F00303D6
:1019600027D0012B0CBF0920012008BD2A4BD3F83A
:101970005C3103F03003202B37D0302B3BD0102BC1
:101980000CBF0720012008BD234BD3F8603103F0C2
:101990000303022B0DD0032B29D0012B0CBF0420F5
:1019A000052008BD1C4BD3F8643103F00303022B60
:1019B000F1D1072008BD184BD3F85C3103F4401374
:1019C000B3F5001F11D0B3F5401F14D0B3F5801F3D
:1019D0000CBF0720012008BD41F6EE010F4802F0C0
:1019E000A7FD002008BD0C2008BD042008BD0A206A
:1019F00008BD032008BD082008BD022008BD062040
:101A000008BD052008BD0E2008BD0D2008BD0B2017
:101A100008BD012008BD00BF00400E40286D000039
:101A200038B5384B0546984206D02DD9364B9842EA
:101A300002D0364B98422AD12846FFF739FF314B66
:101A400004469D422FD034D92F4B9D4216D02F4BA8
:101A50009D4237D12E4BD3F8884004F00704042C64
:101A600004D8DFE804F0094B4739350040F69D7192
:101A7000284802F05DFD0024204638BD244BD3F8F1
:101A80008C4004F00704EAE7234B9842D4D040F698
:101A90001671204802F04CFD2846FFF709FF194B4C
:101AA00004469D42CFD11A4BD3F8844004F007047A
:101AB000D5E7194B9D4205D1154BD3F8804004F072
:101AC0000704CCE740F64571124802F031FDC6E745
:101AD000BDE83840FEF7FEBB0124FEF7D7FB0C4BF8
:101AE000D3F80031C3F3016323449C40B0FBF4F40A
:101AF000204638BDBDE83840FEF7F0BBBDE83840B1
:101B0000FEF7E4BB030020000400220005002400CF
:101B100000400E40286D000002001E00012808B59C
:101B200014BF13481348FFF7C3FE0138072818D81D
:101B3000DFE800F00417170617170A0D002008BD8C
:101B4000BDE80840FEF7B4BB0B4B186808BDFEF7B4
:101B500075FB0A4BD3F80031C3F3042303FB0000E9
:101B600008BD40F60F51064802F0E2FC002008BD17
:101B7000B8003200B90034001000002000400E40D0
:101B8000286D000000F47810B0F5D01F08B500F003
:101B90009D811FD8B0F5402F00F0A58134D8B0F555
:101BA000802F00F0DE806AD9B0F5002F00F03A8176
:101BB000B0F5202F00F00981B0F5C02F4FD1FEF70E
:101BC0003DFBCE4BD3F81831C3F308230133B0FBF0
:101BD000F3F008BDB0F5381F00F0AA812ED8B0F59B
:101BE000001F00F0C9806BD9B0F5201F00F01581EF
:101BF000B0F5281F00F0DC80B0F5101F2FD1BDE834
:101C00000840BF48FFF70CBFB0F5901F00F0B98047
:101C10002CD9B0F5B01F00F04C81B0F5C01F00F01A
:101C20008780B0F5A01F1AD1B548FFF7F9FEB34B76
:101C3000D3F8303103F00303D84008BDB0F5501F8E
:101C400000F083802AD9B0F5601F00F01481B0F550
:101C5000681F00F0A080B0F5581F00F0EE8041F240
:101C6000C741A84802F064FC002008BDB0F5602F11
:101C700035D0B0F5801FF2D1A34B186808BD50B322
:101C8000B0F5003FEBD1FEF7D9FA9C4BD3F8083101
:101C9000C3F308230133B0FBF3F008BDB0F5401FD8
:101CA00038D0B0F5481FDAD10020FFF737FF934B4B
:101CB000D3F85C3103F003030133B0FBF3F008BD4C
:101CC000B0F5E01F19D0B0F5F01FC8D1BDE808404D
:101CD0008E48FFF7A5BEBDE80840FEF7AFBA8C48B6
:101CE000FFF7E6FD0728C7D00928F4D040F6D84111
:101CF000844802F01DFC002008BD8648FFF790FED6
:101D000001237E4AD2F82821C2F301129340B0FB8E
:101D1000F3F008BD7F48FFF783FE0123774AD2F82E
:101D20002821C2F3013204329340B0FBF3F008BD26
:101D30007648FFF775FE0123704AD2F82021C2F3DE
:101D400003129340B0FBF3F008BD0120FFF7E6FE5D
:101D50006A4BD3F85C31C3F301430133B0FBF3F0BA
:101D600008BDFEF76BFA654BD3F80C31C3F30823BB
:101D70000133B0FBF3F008BD6648BDE80840FFF74B
:101D80004FBE6248FFF74CFE5C4BD3F82031C3F3E3
:101D90000343D84008BD6048FFF78AFD0238092890
:101DA00034D8DFE800F02B272320333333331D2FC3
:101DB0005648FFF735FE0123504AD2F82021C2F3DE
:101DC00002329340B0FBF3F008BDFEF737FA4B4BFD
:101DD000D3F80431C3F308230133B0FBF3F008BD9B
:101DE0004E4B186808BD4E4B186808BDBDE808404A
:101DF000FEF75EBABDE80840FEF768BABDE80840E5
:101E0000FEF76CBAFEF754FA400008BD40F6C25126
:101E10003C4802F08DFB002008BD4248BDE8084068
:101E2000FFF7FEBDFEF70AFA344BD3F81C31C3F3BB
:101E300008230133B0FBF3F008BD3B48FFF738FD42
:101E40000438062810D801A353F820F0ED1D000037
:101E5000E71D0000691E0000791C0000691E0000DB
:101E6000691E0000E11D000040F63951254802F0CE
:101E70005FFB002008BD2D48FFF71AFD0438062837
:101E800010D801A353F820F0ED1D0000E71D00005D
:101E9000A51E0000791C0000A51E0000A51E000064
:101EA000E11D000040F66B51164802F041FB002096
:101EB00008BD1648FFF7B4FD0123104AD2F82021CF
:101EC00002F00F029340B0FBF3F008BD1148FFF79A
:101ED000A7FD0123094AD2F8282102F0030293400A
:101EE000B0FBF3F008BDFEF7A9F9044BD3F81431A9
:101EF000C3F304230133B0FBF3F008BD00400E40F0
:101F000005002400286D00001000002002001E00C3
:101F100006000E00030020000C7F3A001400002091
:101F200008000020040022000A7B36000B7C3800E9
:101F30000448FFF775FD044BD3F82031C3F30123A8
:101F4000D84008BD02001E0000400E40C0F303133D
:101F5000013B70B50C460B2B00F24E81DFE813F00D
:101F6000200064004C01750089009D00B100F20062
:101F700038010B0120010C00B1F5007F04D341F2C0
:101F8000DC61C64802F0D4FAC54AD2F8043123F421
:101F9000FF3323F4807343EA0424C2F8044170BD84
:101FA0001F2900F2EA81FFF7BBFB0122BD4BBC4DAC
:101FB0001A60D5F8003123F0407343F08073C5F800
:101FC000003100F09FFBD5F8003123F4F85343EAC9
:101FD0000424C5F80041FEF759F9B34B1C68002CE6
:101FE000FCD1B24B5968C1F30141FFF7A9FBB048DE
:101FF000FFF7C8FDAF4B984240F20E81AE4B012473
:1020000098428CBF4FF000734FF08073A549A44AEB
:102010000C60D2F80001BDE8704020F04070184319
:10202000C2F8000100F084BB1F2904D941F2D0514D
:102030009A4802F07DFA9A4AD2F8143123F4F85300
:1020400043EA0424C2F8144170BDB1F5007F04D303
:1020500041F2D751914802F06BFA914AD2F80C3113
:1020600023F4FF3323F4807343EA0424C2F80C41C1
:1020700070BDB1F5007F04D341F2DE51874802F014
:1020800057FA874AD2F8183123F4FF3323F48073C8
:1020900043EA0424C2F8184170BDB1F5007F04D3AF
:1020A00041F2E6517D4802F043FA7D4AD2F81C31F4
:1020B00023F4FF3323F4807343EA0424C2F81C4161
:1020C00070BDB1F5007F80F05281FFF729FB01213F
:1020D000744B734A1960D2F8003123F0407343F017
:1020E0008073C2F80031D2F8083123F4FF3323F4AF
:1020F000807343EA0424C2F80841FEF7C7F86A4B2C
:102100001C68002CFCD1694B5968C1F30141FFF7F1
:1021100017FB6748FFF736FD664B98427ED9664B42
:10212000012498428CBF4FF000734FF080735D49DB
:102130005B4A0C60D2F8000120F040701843C2F8EE
:10214000000170BD5D4B984200F0A18168D85C4BE6
:10215000984200F01C825B4B984200F0ED81A3F5A1
:102160007033984200F06781BDE8704041F26B61C6
:102170004A4802F0DDB9524B984240F004810229EE
:1021800000F2DF80464BD3F84421D1073BD5444AC7
:10219000D2F8303123F003031C43C2F8304170BD44
:1021A000494B984200F0D380484B984269D10329AB
:1021B00004D941F2CE61394802F0BAF9384AD2F86E
:1021C0005C3123F4403343EA0444C2F85C4170BDFF
:1021D0003F4B984200F0068103F5A113984200F0AE
:1021E00083803C4B984200F0D580BDE8704041F2BE
:1021F000A1612A4802F09CB941F2E361BDE8704058
:10220000264802F095B9D3F840215203BFD5D3F840
:1022100040215203F7D4BAE72346F7E6234686E780
:102220002D4B984206D02D4B984200F05C812C4BF0
:10223000984299D1B4F5004F00F20A8200F00D8265
:10224000651CB5FA85F5C5F11F051F2D00F2F1815A
:102250000123AB40013B9C4204D040F68C31214825
:1022600002F066F90E4BD3F84421D60710D50C4A7C
:10227000D2F8203123F4E04343EA0535C2F8205177
:1022800070BD41F2D461BDE87040044802F050B91D
:10229000D3F840215407FBD4E9E700BF286D0000C4
:1022A00000400E404000C843C800C64300300E4006
:1022B00000050A000048E8010090D00380161800CD
:1022C000A009140080061600B8003200B9003400DE
:1022D00090171C0090071A0000362C0080262E0054
:1022E00080002A005C6C0000A1F10F03702B00F24B
:1022F0008B81651CB5FA85F5C5F11F061F2E00F20E
:102300007D810123B340013B9C4204D040F68C31D7
:10231000CB4802F00DF9CB4BC5F11B05D3F8442196
:10232000D40709D5C74AD2F8283123F4405343EAE9
:102330000535C2F8285170BDD3F840215006FBD4B2
:10234000F0E741F2AB61C04802F0F2F81AE7032966
:1023500004D941F2C661BC4802F0EAF8B94AD2F8A1
:102360005C3123F003031C43C2F85C4170BD41F2B1
:10237000ED51B54802F0DCF8A7E641F2BA51B24897
:1023800002F0D6F80FE641F2BB61BDE87040AE48FE
:1023900002F0CEB8082900F22281651CB5FA85F555
:1023A000C5F11F051F2D00F2FF800123AB40013B4B
:1023B0009C4204D040F68C31A14802F0B9F8A14B00
:1023C000D3F84421D00708D59E4AD2F8283123F00B
:1023D00003031D43C2F8285170BDD3F840215106B4
:1023E000FBD4F1E7082900F2EB80651CB5FA85F50E
:1023F000C5F11F051F2D00F2DD800123AB40013B1D
:102400009C4204D040F68C318D4802F091F88D4BFF
:10241000D3F84421D20709D58A4AD2F8283123F0CB
:10242000300343EA0515C2F8285170BDD3F84021A6
:102430005606FBD4F0E7B1F5004F00F24B8100F0F7
:102440004E81651CB5FA85F5C5F11F051F2D00F2FB
:102450004C810123AB40013B9C4204D040F68C31BF
:10246000774802F065F8774BD3F84421D60709D5B1
:10247000744AD2F8203123F4702343EA0545C2F8A8
:10248000205170BDD3F840215407FBD4F0E7B1F5DB
:10249000004F00F2FA8000F0FD80651CB5FA85F56A
:1024A000C5F11F051F2D00F2EA800123AB40013B5F
:1024B0009C4204D040F68C31614802F039F8614BFF
:1024C000D3F84421D40709D55E4AD2F8203123F04D
:1024D000F00343EA0515C2F8205170BDD3F840213E
:1024E0005007FBD4F0E7082900F2E580651CB5FA37
:1024F00085F5C5F11F051F2D00F2BB800123AB4000
:10250000013B9C4204D040F68C314D4802F010F85B
:102510004C4BD3F84421D10709D54A4AD2F820318F
:1025200023F4407343EA0525C2F8205170BDD3F867
:1025300040215207FBD4F0E7B1F5004F00F2B08024
:1025400000F0B380651CB5FA85F5C5F11F051F2D98
:1025500000F289800123AB40013B9C4204D040F64D
:102560008C31374801F0E4FF364BD3F84421D207D1
:1025700008D5344AD2F8203123F00F031D43C2F8A6
:10258000205170BDD3F840215607FBD4F1E7022952
:1025900049D82C4BD3F84421D0073FF5F8ADD3F8F8
:1025A00040215103FBD4F2E54FF49671274801F026
:1025B000BFFFFAE64FF49671244801F0B9FF1CE71B
:1025C00041F28361204801F0B3FFB4F5004FFFF4FE
:1025D0000CAF40F686311A4801F0AAFF05E741F238
:1025E0007461194801F0A4FFB4F5004FFFF4D5AEB3
:1025F00040F68631124801F09BFFCEE64FF496710B
:10260000124801F095FF7CE641F292610E4801F01C
:102610008FFFB4F5004FFFF46CAE40F686310848EA
:1026200001F086FF65E641F21261074801F080FF84
:10263000AFE74FF49671054801F07AFF08E600BF56
:102640005C6C000000400E40286D0000C06C000073
:1026500041F25D61284801F06BFF40F68631274862
:1026600001F066FFECE54FF49671254801F060FF3C
:1026700070E74FF49671224801F05AFF3EE74FF49D
:1026800096711F4801F054FF0FE741F23E611A486E
:1026900001F04EFF40F68631184801F049FFFCE694
:1026A00041F22F61144801F043FF40F68631134890
:1026B00001F03EFF46E741F24D610F4801F038FF5F
:1026C000B4F5004FFFF412AF40F686310B4801F02D
:1026D0002FFF0BE741F20161074801F029FF40F6A7
:1026E0008631064801F024FFABE64FF496710448AA
:1026F00001F01EFFADE600BF286D00005C6C00001D
:10270000C06C000008B503210648FFF71FFC032139
:102710000548FFF71BFCBDE8084003210348FFF70D
:1027200015BC00BF40410500504107006041090051
:1027300038B5FDF783FD05461F4A1368002BFCD111
:102740001E4B5B68C3F30143022B1ED01C4B1D4C78
:102750002B44A4FB03231C0E18BF04F1FF342146B5
:102760001948FFF7F3FB21461848FFF7EFFB18491C
:10277000184B2944A3FB0131BDE83840890E18BF2E
:1027800001F1FF311448FFF7E1BB144C144B2C440A
:10279000A3FB0434E40D18BF04F1FF3421460A48BA
:1027A000FFF7D4FB21460C48FFF7D0FB2146BDE8DC
:1027B00038400648FFF7CABBC800C64300300E4089
:1027C0007FF0FA02893BE65540410500604109006F
:1027D000FFA14A04B5FA9BEE50410700FF2C3101DE
:1027E0006BCA5F6B38B51D4B0446984232D023D973
:1027F0001B4B984214D003F5F41303F590639842F1
:1028000021D1184BD3F888526B1E03330ED8164BC8
:10281000164A1C601368002BFCD1154B9D6038BD17
:10282000104BD3F884526B1E0333F0D941F63D614F
:10283000104801F07DFEEAE70F4B984203D1094BA7
:10284000D3F86C52E0E741F63D610A48002501F0FB
:102850006FFEDCE7034BD3F87C52D5E70048E80174
:10286000006CDC02B081E00F140000207828C8431F
:1028700000400E40286D00000024F400022810B52E
:102880000C4604D042F210110D4801F051FE0D4BE0
:102890005B6AC3F30113012B00D04CB94FF48001E4
:1028A000084AD2F8903031EA0303FAD1012010BD72
:1028B00042F22B11024801F03BFE0349F0E700BF52
:1028C000286D000000400E40FF3F473AF0B5044637
:1028D00083B00E4605287CD8DFE800F0031F2B6884
:1028E0006D734FF400754FF4807708234FF0090C97
:1028F000D6B9514C0121204625669940D0F8903038
:102900000B42FBD13AB101224B4902FA0CF2D1F849
:1029100090301342FBD103B0F0BD80254027062341
:102920004FF0070C002EE4D04449002619448900DA
:102930000CE000297AD0404B5B6AC3F30113012BF2
:102940004FD004274FF0030C00263D493A4B1F6639
:102950000B68002BFCD0002ADDD0384D6544AD005B
:102960002B68002BFCD0022CD5D1002ED3D0324BBB
:102970005B6A03F00303032B03D020460021FFF71B
:102980007DFF42F281012F4801F0D2FD012200219A
:102990000220FFF79BFF42F2F8012A4801F0C8FD30
:1029A000254B1F662B68002BFCD0B4E701270225BE
:1029B000BC4600239CE72025102704234FF0050C7C
:1029C00096E74FF400654FF480670A234FF00B0C35
:1029D0008EE741F6F5711B4803B0BDE8F04001F009
:1029E000A7BD194BDB6B5B0518D513494B6A03F088
:1029F000030CBCF1030F04D004274FF0030C104963
:102A0000A4E74B6A042723F0300343F020034B6212
:102A100001F16E7101F5E931083197E742F20401E5
:102A20000848019201F084FD019ADEE7082502239F
:102A30004FF0030C5DE700BF00400E408004F21031
:102A40000812C843286D000000300E40112838B528
:102A50000C460DD000F00F0001380B2800F2CE809C
:102A6000DFE800F00B29B289B439CC6D7B43505DAF
:102A7000042900F0D180052913D00025023C0C2C3C
:102A800000F24282DFE814F0F001F301F6010F02D8
:102A90004002400240024002B001400205020C0226
:102AA000EE01B64AB64B15689D42E6D9002128468C
:102AB00000F02EFBE2E7062900F03482B14D013C24
:102AC0000B2C00F2A280DFE804F0979089A0A063AD
:102AD000A0A0A0A0A086072900F02082092940F02C
:102AE000A5800122A84B1A6738BD0C1F062C00F2E6
:102AF000E881DFE814F0D400CD00E601BE00E60175
:102B0000E6011A010C1F062C00F2F081DFE814F038
:102B10000601FF00EE01F800EE01EE01E9008C1E57
:102B2000092C00F2EA81DFE814F0070151014A01A3
:102B30005801E801E801E801E801430116014C1ED3
:102B4000072C00F2CC81DFE814F0CA00CA01CA01E8
:102B5000C300CA01CA018D0083004C1E072C00F27D
:102B6000B781DFE814F0A300B501B501AD00B501F0
:102B7000B501A5006A000629844DA0D141F6FA11DD
:102B8000834801F0D5FC41F60421814801F0D0FCD6
:102B9000FDF77CFB7F4B984245D97F4B0121984242
:102BA0008CBF4FF000704FF0807001247B4B764A51
:102BB0001960D2F800317A4923F040730343C2F818
:102BC000003103230C6007E0764D78E70629764D47
:102BD0007FF475AFD7E704232B6038BD012211467F
:102BE0001046FFF773FE0123F6E70122002011468D
:102BF000FFF76CFE0223EFE70023EDE741F6EF312C
:102C0000BDE83840624801F093BC41F63021BDE890
:102C100038405F4801F08CBCFDF74AFB05460028B0
:102C20003FF42BAF42E700200146BEE741F6BA2150
:102C3000BDE83840564801F07BBC4FF44011524A81
:102C4000D2F85C3123F440130B43C2F85C3138BD39
:102C500030214D4AD2F85C3123F030030B43C2F8E7
:102C60005C3138BD012204201146FFF72FFE1021F0
:102C7000EFE7012204201146FFF728FE0221424A15
:102C8000D2F8603123F003030B43C2F8603138BD42
:102C9000012203201146FFF719FE0021EFE7012270
:102CA00002201146FFF712FE0121E8E70021C6E7E6
:102CB000012204201146FFF709FE4FF48011BEE700
:102CC000012202201146FFF701FE4FF40011B6E782
:102CD000012202201146FFF7F9FD2021B9E700216A
:102CE000B7E7012205201146FFF7F0FD0321264A30
:102CF000D2F8643123F003030B43C2F8643138BDCA
:102D0000012204201146FFF7E1FD0221EFE7012235
:102D100003201146FFF7DAFD0021E8E70122022037
:102D20001146FFF7D3FD0121E1E7012205201146FD
:102D3000FFF7CCFD0321A2E7012200201146FFF797
:102D4000C5FD0421104AD2F8F03123F007030B43EC
:102D5000C2F8F03138BDFDF7ABFA144B984200F2DF
:102D6000E8800122084C1146636A022043F0080300
:102D70006362FFF7ABFD0221E4E700BF080000201B
:102D8000002D310180400E4000400E408C400E402E
:102D9000286D00000048E8010090D0034000C843BF
:102DA0000016C84384400E4088400E4040787D01A4
:102DB000012205201146FFF789FD0021C2E701220B
:102DC00002201146FFF782FD0121BBE701221146D7
:102DD0001046FFF77BFD0521B4E7012203201146D1
:102DE000FFF774FD0321ADE70520062401221146FB
:102DF000FFF76CFDFEF794FCFFF784FC1DB1504A11
:102E00001368002BFCD14F4B4F485C67FEF7BAFEAE
:102E10004E4B98427FD94E4B012498428CBF4FF0C5
:102E200000734FF080734B49464A0C60D2F80001A2
:102E300020F040701843C2F80001FDF727FA404A1D
:102E40001368002BFCD1444B5968C1F30141FEF7D4
:102E500077FC1DB92846012100F05AF9BDE8384039
:102E6000FFF766BC0724C5E700200424BEE7012065
:102E70000324BBE701210220364B324A1960D2F805
:102E80000031044623F0407343F08073C2F80031F0
:102E9000ACE741F6AF11BDE83840304801F048BB1F
:102EA00003200524A2E701242A4B264A1C60D2F8FD
:102EB0000031032023F0407343F08073C2F80031E7
:102EC00094E741F66231BDE83840244801F030BB58
:102ED00041F63B31BDE83840204801F029BB41F6BE
:102EE0001831BDE838401D4801F022BB41F6893158
:102EF000BDE83840194801F01BBB41F6C331BDE8BD
:102F00003840164801F014BB41F6B411BDE8384012
:102F1000124801F00DBB00231C4684E70022094B38
:102F20001A6738BD41F6F0110C4801F001FB0C4D59
:102F300024E641F6A431094801F0FAFA11E700BF8E
:102F4000C800C64300400E4000050A000048E801E2
:102F50000090D0034000C84300300E40286D0000B0
:102F600080400E4000B962B6704700BF72B670472D
:102F700062B67047EFF3108072B67047FFF7F2BF8A
:102F8000034B5868C0F30800003018BF0120704799
:102F900000ED00E0EFF3108000F00100704700BF8B
:102FA00038B5C4B2452C054604D940F20D31074866
:102FB00001F0BEFA064B6D0953F8250004F01F041A
:102FC000E040C04300F0010038BD00BF746D000058
:102FD00000E100E038B5C5B205F10C03DBB2512BBE
:102FE000044630D8EFF31083DB0701D5012038BD4C
:102FF0002046FFF7D5FF0028F8D1002C29DB04F18B
:10300000604404F5614494F800235209EFF31183FE
:1030100013B1B2EB531FE9D2154C6368C3F3080335
:10302000002BE4D0103BDBB259B2002918DB01F1D0
:10303000604303F5614393F800034009824234BFC3
:103040000020012038BD4FF427710A4801F070FAC2
:10305000C8E7094B05F00F052B441A7E5209D5E746
:1030600003F00F03043B2344187E4009E6E700BF4A
:1030700000ED00E0746D0000FCEC00E01F4B2DE95A
:10308000F04104460E46D3F80051FDF7D7F8074645
:103090001B4A1368002BFCD11A4A5368C3F301433F
:1030A0009C4229D01023C4F10208022C03FA08F82C
:1030B0000DD0C2F810801EB1114A1368002BFCD14C
:1030C000D4B921463846BDE8F041FEF739BBC5F317
:1030D000042505FB07750C4B9D4204D94FF49F61F5
:1030E0000A4801F025FA02213846FEF729FB054B74
:1030F000C3F81080002EDFD1BDE8F08100400E4003
:10310000C800C64300300E40002D3101886D00001C
:1031100010B5104B82B0D3F8004158B10E4B1B785C
:1031200013B10E4B98420ED9002002B0BDE81040FA
:10313000FFF7A4BF0191FDF781F8C4F3042404FB59
:1031400000000199EAE7022002B0BDE81040FFF755
:1031500095BF00BF00400E40BC010020FF2C310194
:103160002DE9F843082806460C46154699469DF871
:1031700020809DF8247030D9C5212C4801F0D8F961
:1031800084EA050333F0030331D1072D04F003046F
:103190004FF00F014FF0030235D8AB00244899409F
:1031A00001609E409C40DFF8A8C002FA03F3214969
:1031B000214ACCF800600B60146001201F4A204BAC
:1031C0002A449200A840C2F80090C2F88080C3F858
:1031D0002404C2F80073BDE8F8834FF6FF730B4177
:1031E000DB07C9D584EA050333F00303CDD0C7213B
:1031F0000E4801F09DF9072D04F003044FF00F0174
:103200004FF00302C9D9A5F108039B000D4899406E
:1032100001609E409C40DFF83CC002FA03F30A497B
:103220000A4ACCF800600B601460C6E79C6D000091
:103230000084084408840844088408468020C41098
:1032400000800840048408440C8408440C84084628
:10325000008408460484084608282DE9F041044605
:103260000D46174698462DD94FF48E714A4801F005
:103270005FF977BB6600072D40D80F2033191B017B
:1032800003F1804303F508235A68A900884022EA25
:10329000000207FA01F10A435A608FB9B8F1000F32
:1032A00051D1082C60D940F2DD313C4801F040F9A1
:1032B000012234443A4B2401234402FA05F51D60EF
:1032C000BDE8F0814FF6FF730B41DE07CCD5002F30
:1032D000D0D0B8F1000F25D0082C4BD940F20C41CA
:1032E0002E4801F025F9012204FA02F631192D4B7E
:1032F00009010B44AA40072D1A60BED90F223119CB
:10330000090101F1804105F1804001F508210838EB
:103310008B688000824023EA020307FA00F018431A
:103320008860BAE7082C2BD940F2DD311B4801F048
:10333000FFF8012204FA02F63119194B09010B4476
:10334000AA401A6097E7082C20D940F20C41134894
:1033500001F0EEF801223444124B2401234402FA16
:1033600005F51D60BDE8F0814FF6FF732B41DB07CB
:103370009ED498E74FF6FF732B41D807B3D4ADE73F
:103380004FF6FF732B41D907D3D4CDE74FF6FF7328
:103390002B41DA07DED4D8E79C6D0000B06D000049
:1033A0000C8008440C800846434B2DE9F0479842B6
:1033B00004460D462BD003F58063984227D003F5D1
:1033C0008063984223D003F5806398421FD003F5B1
:1033D000806398421BD003F58063984217D003F5B1
:1033E0008063984213D003F5006398420FD003F531
:1033F000806398420BD003F58063984207D003F5B1
:103400008063984203D0A0212C4801F091F82978DC
:1034100009B9022363604FF000096A786B7A002AC9
:10342000AA7AE87A14BF4FF040084FF00008002B4A
:1034300014BF80230023002A2A7B14BF4FF0200EE4
:103440004FF0000E0028287914BF4FF0100C4FF0F9
:10345000000C002A6A7914BF08270027002814BF2F
:103460004FF400560026002A14BF4FF08050002071
:10347000EA7895F802A0120442EA0A6295F808A0D8
:10348000C4F8249095F8069042EA0A02ED7942EADF
:10349000892242EA052242EA0802134343EA0E0364
:1034A00043EA0C033B4333430343236009B1012345
:1034B0006360BDE8F08700BF00800140146E00002B
:1034C000394B2DE9F04198420446884615462BD0E9
:1034D00003F58063984227D003F58063984223D098
:1034E00003F5806398421FD003F5806398421BD098
:1034F00003F58063984217D003F58063984213D098
:1035000003F5006398420FD003F5806398420BD017
:1035100003F58063984207D003F58063984203D097
:10352000EC21224801F004F8B8F1030F37D8EA790A
:103530002B7A002A6A7A14BF4FF0804C4FF0000CAF
:10354000002BAB7A14BF4FF000570027002A14BF9E
:1035500010260026002B14BF0422002268782B7846
:10356000000640EA8360AB7908F106011843AB78A6
:10357000090140EA0340EB7840EA03302B7940EA46
:1035800083206B79ED7A40EA032343EA057343EA2B
:103590000C033B43334313436350BDE8F081ED21FB
:1035A000024800F0C5FFC2E700800140146E000031
:1035B00070B506460C461546BAB13CB90E4B9E4254
:1035C0000CBF0E480E48FEF7DDFA0446013C6D00C4
:1035D000B4FBF5F42402E30DDB0523B14FF42371B2
:1035E000084800F0A5FF746170BD40F26F210548E6
:1035F00000F09EFFE1E700BF0008014050410700D6
:1036000040410500286E00002D4B10B5984204463D
:1036100042D003F5806398421CD003F58063984242
:103620003AD003F58063984214D003F58063984242
:1036300010D003F5806398420CD003F530539842C4
:1036400008D003F58063984204D040F207411D483A
:1036500000F06EFF002340F6AA6041F205011A4A0D
:10366000E06023606160A3606361E364A264236639
:103670006367A367E3670022144BA2659C4208D0EE
:1036800003F500639C4204D003F580639C4200D0A4
:1036900010BD0023E36510BD002340F6AA6041F28F
:1036A0000501094AE06023606160A3606361E3642F
:1036B000A26423666367A367E36700232365DAE7F1
:1036C00000000140286E0000F9FF010000040140E5
:1036D00038B52D4B044698420D4618D003F580634B
:1036E000984214D003F58063984210D003F58063AC
:1036F00098420CD003F58063984208D003F58063AC
:10370000984204D040F23531204800F011FF2046A5
:10371000FFF77AFFAB7B2A8A002B0CBF00214FF406
:103720008061236842F0010213430B432A7D23602A
:1037300023680AB143F00053AA7C23601AB1EB7CE2
:1037400043F08003A3652B7BAA6843F48053636036
:1037500069682046FFF72CFF6B7B0BB11023E360F9
:103760006B7D1BB1236843F480332360AB7DEA7D1E
:103770001B071205297803F0E04302F4E00213432B
:103780002366E16038BD00BF00000140286E0000E4
:1037900070B5284CC0EBC00304EB8304A66900F5A8
:1037A000DE43327D283324495B01032AC95813D1F3
:1037B000736B0546002B31D0F27B9A4294BF9B1A63
:1037C000DB1A7363D3B900F07FFF237D627D43F082
:1037D000200323755AB170BD00F076FF0021237DD0
:1037E000627D43F0200323757163002AF3D1A06941
:1037F0006FF00B01BDE8704001F022B800F0BEFF91
:10380000F17B736B0D4A994252F8252005F10100B6
:1038100028BF1946BDE8704001F0F6BB00F0AEFFCE
:10382000064BF17B53F82520681CBDE8704001F081
:10383000EBBB00BF4807002000200240686E00007C
:103840000D20FFF7A5BF00BF0C20FFF7A1BF00BFF1
:103850000B20FFF79DBF00BF0A20FFF799BF00BFF5
:103860000920FFF795BF00BF0820FFF791BF00BFF9
:103870000720FFF78DBF00BF0620FFF789BF00BFFD
:103880000520FFF785BF00BF0420FFF781BF00BF01
:103890000320FFF77DBF00BF0220FFF779BF00BF05
:1038A0000120FFF775BF00BF0020FFF771BF00BF09
:1038B00038B5034600201C7BDD7A04F00304DA6887
:1038C0001C756CB2C2F30F225D770D294FEAD475D7
:1038D0009D76DA82187704D8002CB4BF5976197611
:1038E00038BDD921024800F023FE6FF0030038BD37
:1038F0003C6E00000246012370B502260025407E82
:103900009376C0EBC0031163D67603FA06F4126A0D
:10391000044B1A512344C3E9021500F02FFF284637
:1039200070BD00BF48070020F8B5022603460024FA
:10393000007E084DC0EBC002B240DE761F6AAE18B2
:1039400019639C76C6E90214AF5000F017FF2046B9
:10395000F8BD00BF48070020F8B50025082604463A
:103960004FF0030C0127037E0E4AC3EBC3039B00F9
:10397000D118C1E902658861D050407EC0EBC00318
:1039800002EB8302946184F81BC02663A77600F0E3
:10399000A7FE207EA57600F0A3FE207E00F0EEFEBE
:1039A0002846F8BD480700202DE9F84F0D9DBDF8C9
:1039B0002880BDF82C7000285AD09346304A1278DF
:1039C000032A3FD11E460C9B9B0744D104468A46DE
:1039D000FFF7D0FA227F8146002A44D1607E294930
:1039E000C0EBC00001EB8000407D70B3207EC0EBD7
:1039F000C00C01EB8C01497D39B301210E9B84F889
:103A000000A0A3620C9B84F801B06680A4F8048037
:103A1000E78084F824202362E262656322722177C2
:103A200045B92046FFF798FF4846FFF7A7FA002060
:103A3000BDE8F88F144B294653F82020013001F0DF
:103A4000E3FAEEE76FF00300F2E74846FFF796FA75
:103A50006FF00D00ECE70D484FF4997100F068FD30
:103A60006FF00300E4E7FFF789FA6FF00100DFE78A
:103A7000064840F2271100F05BFD6FF00300D7E726
:103A80003407002048070020686E00003C6E0000EC
:103A90002DE9F04387B004460D4616461F46BDF893
:103AA0003880BDF83C90FFF775FAE0B9FFF768FA87
:103AB000C8B9119B04900393109BCDF80080CDE909
:103AC000019332463B4629462046FFF76DFF38B941
:103AD00094F82430002BFBD094F9250000B9E06A5B
:103AE00007B0BDE8F083044840F2991100F020FDD2
:103AF0006FF00300F4E700BF3C6E0000034B187842
:103B0000A0F10300B0FA80F04009704734070020AC
:103B100030B585B0C8B181B14FF47A75002492B246
:103B2000CDE9012143F4007324300395009406226B
:103B30008021FFF7ADFF05B030BD084840F2AB2152
:103B400000F0F6FC6FF00300F5E704484FF429712C
:103B500000F0EEFC6FF00300EDE700BF3C6E0000EC
:103B600010B584B0C8B181B100234FF47A7492B219
:103B7000CDE901210093243003944FF48073062291
:103B80008021FFF785FF04B010BD084840F2E12115
:103B900000F0CEFC6FF00300F5E7044840F2DA21B4
:103BA00000F0C6FC6FF00300EDE700BF3C6E0000C4
:103BB000024BD3F84004C0F341407047000010406E
:103BC00038B500283ED003683F2B33D942683F2ADE
:103BD00030D981683F292DD913440B44B3F5F96FCF
:103BE00028D80FC800241B4D85E80F004FF08045F2
:103BF00004211120FEF72AFF01F05CF9164B17484B
:103C00001C70FEF7EFFD0A211548FEF71FFF154B4C
:103C10001549D3F8B020204642F48062C3F8B020A2
:103C2000D3F8F02142F08002C3F8F021C1F88451AA
:103C30004D6038BD40F262310C4800F079FC6FF005
:103C4000030038BD4FF45671084800F071FC6FF066
:103C5000030038BD3807002034070020006CDC0268
:103C60000C7F3A0000400E4000E100E03C6E000096
:103C700010B50446FFF78EF910BBFFF781F9F8B9CC
:103C8000FFF778F9124A84B9D2F84034114923F485
:103C9000815323F00E03C2F840340C70FFF76EF925
:103CA000FA2001F095F8002010BDD2F8403423F43A
:103CB000815323F00E0343F48053C2F84034EDE700
:103CC00040F25241044800F033FC6FF0030010BD95
:103CD00000001040340700203C6E000038B5034659
:103CE00060B30278122A25D14278012A22D1427C7F
:103CF0008A421FDDB0F86A40DA6D68300444A2429F
:103D000028BF2246904215D293F8683093B100251F
:103D100004E0184482420DD903786BB1092BF8D125
:103D20004478022CF5D1A94205D01844824205F10D
:103D30000105F1D8002038BD184638BD044640F2D0
:103D4000AA51024800F0F4FB204638BD3C6E00004A
:103D5000F8B5154606460F46FFF7C0FF10B30379C6
:103D60000446AB421EDD791C3046FFF7B7FF024622
:103D700004F10900E2B1824214D9637A93B10024BC
:103D800004E0184482420DD903785BB1092BF8D1C5
:103D900041780429F5D1A54206D01844824204F1A5
:103DA0000104F1D80020F8BD8178A942F5D1F8BD11
:103DB000F26DE0E72DE9F0411D4606460F469046BC
:103DC000FFF7C6FF20B303790446AB4220DD08F1BC
:103DD000010239463046FFF7BBFF024604F10900F5
:103DE000CAB1824214D9637A93B1002404E0184422
:103DF00082420DD903785BB1092BF8D141780529AE
:103E0000F5D1A54205D01844824204F10104F1D84D
:103E10000020BDE8F081F26DE3E700BF2DE9F84333
:103E20009DF82060002800F0DC8015460F466822CF
:103E300000210446984601F07DFD00220823C4E9D4
:103E4000175884F8656084F864206387002F47D092
:103E500007F1240304F1240207F15401D3F800E030
:103E6000D3F804C09E68D86810338B42C2F800E0D3
:103E7000C2F804C09660D06002F11002EED10020BA
:103E80004FF480711E685B6816605360646384F849
:103E90003800A18765BB3B463E687868B968FA6818
:103EA0006060A1602660E2603A8A2946228253F867
:103EB000126F38465A68C4F81260C4F816201B7A8C
:103EC0000122A376FFF744FF42680168C4F81F206F
:103ED000C4F81B10027A284684F82320BDE8F88332
:103EE0004FF48073646384F83870A387002D50D03A
:103EF000B8F1000F50DD00252E46A946E06D3822AE
:103F00002844002101F016FDE36D01362B44B04535
:103F10001C6183F81B9005F13805EFD1CFB339460A
:103F20004FF000093D687868BA68FB6825606060FA
:103F3000A260E3603A8A4E46228251F8125F012263
:103F40004868C4F81250C4F81600087A0021A07618
:103F50003846FFF7FDFE42680168C4F81F20C4F828
:103F60001B10027A84F823203346012200213846B0
:103F7000E56DFFF71FFF426801684D44C5F8091061
:103F8000C5F80D20027A0136B04509F138096A7486
:103F9000EAD10020BDE8F883002FFAD03B463D6807
:103FA0007868B968FA686060A1602560E2603A8A62
:103FB0000021228253F8125F38465A68C4F8125022
:103FC000C4F816201B7A0122A376FFF7C1FE4268CF
:103FD0000168C4F81F20C4F81B10027A84F823205B
:103FE000D7E7044840F2CF3100F0A2FA6FF00300A7
:103FF000D0E700BF3C6E0000002370B504460E46BB
:10400000154682B0194600921A46FFF707FF082EA0
:1040100004EB0603324684F8655028BF0822E365A6
:1040200021462046FFF79CFD08283ED1E379122E59
:1040300004F168053246638728BF122229462046CC
:10404000FFF78EFD122830D1226F636FA06EE16EF4
:10405000A260E360A6F11202B4F87830092A206069
:104060006160238228BF0922002329462046FFF7EA
:104070004FFD092819D1E26EA16EC4F8162094F8FC
:104080007020C4F81210A276A28A683EB24228BFFD
:104090003246294620460023FFF73AFD11284FF00B
:1040A000FF30C8BF002002B070BD4FF0FF3002B03B
:1040B00070BD00BF2DE9F0470446424889460178AB
:1040C000657E032957D1B2F5002F164656DA9A4677
:1040D000E38A92FBF3F3B3F5806F4FDA19F0030F25
:1040E00054D1FEF747FF227F8046002A56D1A37E97
:1040F000002B58D0C5EBC505334BAD005F19797D5A
:1041000000295AD00221089884F82420A062C4F81B
:104110002090C4E90B26C4F834A02177C7E90262D5
:1041200043F80590BC61237D032B0ED0607EBAF16D
:10413000000F15D100F0D4FA607E00F01FFB40465E
:10414000FEF71CFF0020BDE8F087E37BBAF1000F0B
:104150000FD09A45A8BF9A46607EBAF1000FE9D009
:104160001A4B514653F82020013000F04DFF607E7D
:10417000E0E79A46DAE76FF00300E4E7144840F21C
:10418000C96100F0D5F96FF00300DCE7104840F298
:10419000CF6100F0CDF96FF00300D4E7FEF7EEFE3B
:1041A0006FF00100CFE7FEF7E9FE094840F2DD615C
:1041B00000F0BEF96FF00300C5E7FEF7DFFE6FF019
:1041C0000D00C0E73407002048070020686E00009B
:1041D0003C6E0000F0B583B004460D4616461F46FF
:1041E000FEF7D8FEA0B9FEF7CBFE88B900903B469B
:1041F000324629462046FFF75DFF38B994F824304F
:10420000002BFBD094F9250000B9E06A03B0F0BDA3
:10421000034840F22C7100F08BF96FF00300F5E7D2
:104220003C6E000010B5002000F0C8FE012000F038
:10423000C5FE124C022000F0C1FE032000F0BEFEBD
:10424000FEF798FE04F55E22936823F00103936065
:10425000FEF794FE0020FFF70BFD0022084BA26141
:10426000D3F8B02022F48062C3F8B020D3F8F02154
:1042700022F08002C3F8F02110BD00BF00200240F0
:1042800000400E402DE9F04F85B0002800F0298154
:1042900000234FF47A7482461D4604FB01F4DFF8D4
:1042A00084B2DFF86092DFF88082924E924FCBF8B2
:1042B0000030924B9B69DA0703D5914B1B68DB04F6
:1042C00068D4542200218F4801F034FB012389F87F
:1042D000153089F8313089F84D30FEF74BFED8E9BA
:1042E00001120390D8F8000000F052F94FF080411D
:1042F000039B854A1846C2F88411FEF73FFE002C46
:104300006BD00120FFF7B4FC05F59675FEF732FE81
:104310004FF0000E4FF0FF314FF00C5C7B4B7C4AAE
:10432000C3F800E0DFF804E21160CEF80010C3F833
:1043300000C0536843F001035360FEF71FFE08E01E
:10434000A54280F2A8803B68323553B1322000F09C
:104350003FFD3378032B44D0002CF1D13B68002B78
:10436000F4D16C4A0020D2F8403423F49773C2F899
:104370004034D2F8403423F4815323F00E03C2F8C2
:10438000403400F01BFE04236FF00F00337005B0C3
:10439000BDE8F08F0020FFF76BFC5422002C7FD18A
:1043A0002146584801F0C6FA012389F8153089F8EA
:1043B000313089F84D30FEF7DDFDD8E90112039068
:1043C000D8F8000000F0E4F84FF08041039B4E4A1B
:1043D0001846C2F88411FEF7D1FD0120FFF748FC12
:1043E00094E7642000F0F4FC6CBB454A2346116856
:1043F0005046C1F34141224600912146FFF70EFD90
:10440000082251465046FFF7ABFB082867D0FFF75C
:1044100009FF414BD3F8B02042F48062C3F8B020CA
:10442000D3F8F02142F08002C3F8F021DBF800203D
:104430003A4B0132A3FB02135B0803EB4303D31A8D
:10444000CBF8003035E700232D491A460868194695
:10445000C0F3414000905046FFF7E0FC082251466F
:104460005046FFF77DFB082839D0FFF7DBFE2A4BCB
:1044700005F24655D3F8B020AC4242F48062C3F84E
:10448000B020D3F8F02142F08002C3F8F021CDDC57
:104490006FF00E007BE76FF00B0005B0BDE8F08F0A
:1044A0000021184801F046FA012389F8153089F8EF
:1044B000313089F84D30FEF75DFDD8E901120390E7
:1044C000D8F8000000F064F84FF08041039B0E4ADA
:1044D0001846C2F88411FA35FEF750FD11E70020A6
:1044E00055E70F4840F6850100F022F86FF0030011
:1044F0004DE700BF34070020982110430020024000
:10450000400410404807002000E100E0180010407F
:10451000040010400000104000400E40ABAAAAAAC0
:104520003C6E00009C07002038070020140010405B
:10453000FEE700BF08B5134B1349D3F8002E22F055
:104540000102C3F8002ED3F8002E22F00C02C3F8AB
:10455000002E1A6822F0C0021A604A6B42F08002F4
:104560004A631A6942F001021A61084B1B68DB07B3
:10457000FBD4012000F056FC044B1B68002BFBDA37
:1045800008BD00BF00001040002002401000104095
:10459000F8B585088E08474801211746FDF70AF946
:1045A0000521002308460422FEF756FE06210520B9
:1045B00001230222FEF750FE03223F4B3F4C9A613B
:1045C000FFF7B8FFE36823F0604343F00053E36074
:1045D000FEF7CEFC642000F0FBFBFEF7C7FC4FF4B7
:1045E0008461D4F80024364B22F0070242F0050221
:1045F000C4F80024A268A81903EA873322F03E0217
:10460000C0F30A07A8B242F022023B43C5F30905F2
:1046100040EA0646A2606562A662C4F800312161E4
:10462000284B1A689206FBD410221A60254B1B688F
:1046300013F01003FAD146F628764FF080454FF07C
:10464000FF341D48991900EB43120133490102F56B
:104650005E220E2B4550C2F80845F3D100214B01D4
:1046600003F1804303F58010D0F8002500F5A06326
:1046700042F04042C0F8002500BF00BF00BF00BFAD
:1046800000BF00BF1A68002AF6DB01310E29E6D10F
:1046900000231946084800EB4312013302F55E225D
:1046A0000E2BC2F80C15F6D1044B0020C3F81814D9
:1046B000F8BD00BF00550A00002002400000104075
:1046C0000000FF031000104000F5DE402830034BCF
:1046D000400141F040411950704700BF00200240A6
:1046E000F0B44FF0FF36C500214C2B1A420104EB09
:1046F000830302F18042996902F58012C2F80865CD
:104700000E7D032E07D80123B34013F00D0F1CBFFD
:104710000223C2F80C3501220027164B2D1A04EB98
:104720008504D3F8185482402A436760C3F81824DC
:104730000C694A7FCB8A94F86450D20243EA8643DC
:10474000897E02F4F04243EA8553134309B143F4EE
:10475000004394F8652000F5DE40022A00F12800AD
:10476000054A08BF43F4003340011350F0BC7047C2
:104770004807002000001040002002400023F0B451
:10478000C2002C4D141A05EB8404A16823756375CF
:10479000002935D0A3694C1EDE8A274F3444B4FB70
:1047A000F6F41FFA84FC07EAC447161A05EB8606DE
:1047B000B469A67E4EB3E38A03FB0CF399B2121AD6
:1047C0009200AB181961E37E40015B0703F0C04320
:1047D0003B4300F1804606F580160B43C6F81035C2
:1047E000AB58C6F81435227DD6F80035032A0ED012
:1047F00023F0404343F00043C6F80035F0BC704757
:104800004FF400274FF0010CCFE789B2D7E70B4AEE
:1048100023F0C043D2F8082443F0004312F0010F04
:104820000CBF4FF0005200221343C6F80035F0BC15
:10483000704700BF480700200000F81F000010402C
:104840002DE9F04100220E460121037D044680F847
:10485000256080F82410027753BB90F90030007E69
:104860009342636BB4BF657E0546002B3DD10127A3
:10487000214BC5EBC50503EB8505E968627EE16266
:10488000C2EBC202C0EBC000A96803EB800003EBDF
:104890008203E28821635F75477522B3A36A4BB335
:1048A00000223046A262D4E90B12BDE8F04118475D
:1048B000827E82B9626B057E8AB9032B0FD00121FB
:1048C0000D4BC5EBC50503EB8503DA685975E2624C
:1048D0009B682363E2E7626B457E002AEDD0681C8B
:1048E00000F06CFBEBE7E262D8E7013000F066FB1A
:1048F000207EBCE7BDE8F08148070020037F10B5AB
:10490000013B0446042B0BD8DFE803F00B1903141A
:10491000140079B900212046FEF7ECFF0423237729
:1049200010BD99B1037A0133DBB2012B037201D1BF
:10493000436BE3B92046BDE81040FFF781BF002973
:10494000F8D1FEF7F1FF0523237710BDC1880029B8
:10495000E0D090F90030002B04DBFEF7E5FF0323E5
:10496000237710BDFEF7C6FF0223237710BDBDE8F5
:104970001040FEF7F1BF00BF037F023B012B00D9BF
:104980007047FFF75DBF00BF074BD3F8403413F00B
:10499000010304BF054A1370034AD2F8403423F4DC
:1049A0009773C2F84034704700001040340700206D
:1049B000204A38B5D2F8403413F001012AD003F46C
:1049C000C023B3F5802F28D0B3F5003F0BD14BF6B1
:1049D0008033C2F80434D2F8003423F0030343F0E8
:1049E0000103C2F800340225134A144B1268144C18
:1049F00003EBC2035968134A0020257000F004FB42
:104A00000C4AD2F8403423F4977343F48073C2F80D
:104A1000403438BD0A4B197038BD41F27073C2F88A
:104A20000434D2F8003423F0030343F00203C2F845
:104A30000034D8E7000010409C070020506E0000B2
:104A400034070020894900002DE9F84FFEF792FA5B
:104A5000B34B5C699A69144007D0A501064655D44A
:104A6000E20138D4A30004D43046BDE8F84FFEF785
:104A700085BA00204FF0005246F628784FF0FF37F5
:104A8000A74DA84B6A61C5F818040446187000F0D9
:104A900095FAD5F84034DFF8A09223F49773C5F85F
:104AA0004034A5F55E2504EB08035B01E958204678
:104AB000FFF70AFE05EB441399F8152003F55E2372
:104AC0000134C3F80875002A00F08D80032C09F129
:104AD0001C09E8D1C8E7924B924FD3F8405438787C
:104AE000C0B2022800F08680032800F09E800028D3
:104AF00000F08B808A4B25F02E0545F02A0524F026
:104B00008074C3F84054A300AED5B2E70025012756
:104B10004FF0FF3AD3F81484DFF81C9218EA070F1D
:104B200056D06B0103F1804202F58012D2F80015D5
:104B300003F1804311F400412CD0D2F8081513463C
:104B40008807D2F800C543D501F02102212AC3F815
:104B500008A500F098800A072ED4CB054FEAC500BF
:104B600000F18E80421B09EB820292F814E001F4FE
:104B70008263B3F5806F0EF0200E00F0BF8001F469
:104B80009261802900F0BA80BEF1000F20D06FF052
:104B90000B0114E003F58013D3F80805D2F800C523
:104BA000820715D500F02102212AC3F808A500F0DC
:104BB000888010F0080355D06FF00401E800401B16
:104BC00009EB80001CF4402F80691BD0FFF7D4FE56
:104BD0000135032D4FEA4707A0D124F00074E2010C
:104BE0007FF540AF77E76FF00C01D9F81800FFF7B9
:104BF00027FE6BE705F00D030D2B7FF47BAF03233E
:104C00003B7077E7FFF77AFEE2E705F00303032B3B
:104C10007FF470AF01234449444A09683B7052F85D
:104C20003110434A00F0F0F964E705F00C02082A5D
:104C30007FF460AF3F4A106800287FF45BAFD3F881
:104C4000402422F49772C3F84024D3F8402422F47D
:104C5000815222F00E02C3F8402400F0AFF9042381
:104C60003B7047E7020640D510F0300F4AD1E8000C
:104C7000421B09EB820253680133022B53604ADD69
:104C80006FF006019BE7E800A0EB050ED3F81015C6
:104C900009EB8E0EDEF81020C1F3120BDEF80810BF
:104CA000A2EB0B02891ACEE90212D3F81025DEF826
:104CB000183012F0C04F14BF022200220021DA7611
:104CC0007DE7E800A0EB050E09EB8E0EDEF808206C
:104CD000CEE90212D3F81025DEF8183012F0C04FDA
:104CE00014BF02220022DA7669E7E800431B09EBD1
:104CF00083031B7D99067FF56BAF48E7BEF1000F7C
:104D0000B9D044E7C5EBC50209EB820228465360DF
:104D1000FFF734FD5CE72846FFF730FD58E700BF9A
:104D200000001040340700209C070020506E000057
:104D3000B14900009821104348070020084B82B079
:104D400019465A6A92B24B6A9BB2ADF80630BDF86A
:104D500006309B1A9BB28342F5D302B0704700BF66
:104D600000800140174BDA68D20600D47047102249
:104D7000154930B55A615A6E0968144C0A4492B20A
:104D80005A6683B0FEF7F6F823683BB11A68013A19
:104D90001A6000210BB11A682AB181B903B0BDE8CD
:104DA0003040FEF7EBB89D681A7301215B68002D57
:104DB000F0D001902360A84723680198E9E72360B9
:104DC000ECE700BF00800140D0010020C0010020BE
:104DD0002DE9F843002744F62066104B1C68A0FB21
:104DE0000445AF4208BFA6420FD24FF0FF39DFF8AB
:104DF000308014EB080445EB090544F62060FFF70A
:104E00009DFFAF4208BFA642F3D3A0B208B9BDE8E8
:104E1000F883BDE8F843FFF791BF00BFD001002041
:104E2000E0B1FFFF2DE9F8431C4B1C68A0FB0445D3
:104E300054EA05030AD11A4C1A4BA4FB00241B6840
:104E4000E408A4FB034554EA05031AD000274EF6F4
:104E50006026AF4208BFA6420FD24FF0FF39DFF8FD
:104E6000508014EB080445EB09054EF66020FFF76F
:104E700065FFAF4208BFA642F3D3A0B250B9BDE868
:104E8000F883094C094BA4FB00201C684009A0FBD7
:104E90000445DBE7BDE8F843FFF750BFCC01002035
:104EA000CDCCCCCCC80100201F85EB51C401002023
:104EB000A015FFFF2DE9F04100244FF0010888B054
:104EC000314804940194CDE905448DF81C40CDE9A6
:104ED00002448DF81080FCF755FE022600F543438E
:104EE00050332A4D5B09A5FB0335294A00F5F4230D
:104EF00003F59073A2FB033C00F59C5200F5FA7396
:104F000024480832A0FB0202234F2448ED09A0FBED
:104F100003033D60224D4FEA9C4028602148520B1C
:104F20008DF80A60204E9B09026041461F4833609D
:104F3000FCF740FC4FF6FF731D4D2146EB6101AAC3
:104F40002846FEF7BDFA04A92846FEF72DFA4FF0D1
:104F5000FF336B61AB6943F01003AB616C6A33687C
:104F60001C44B4F5803F04D34FF434711148FFF76B
:104F7000DFFA2022104B0E494C66C3F880211A60DC
:104F800008B0BDE8F08100BF40410500C55A7C0A69
:104F900083DE1B435917B7D1C8010020D34D6210DF
:104FA000CC010020C4010020D00100200002060036
:104FB00000800140A06E000000E100E070B50546F1
:104FC000FDF7D8FF0E490B685BB100220D4E2D0195
:104FD000741922739C425A6807D0191D1346002A7F
:104FE000F8D1BDE87040FDF7C9BF1AB17459136814
:104FF000234413600A60BDE87040FDF7BFBF00BFE7
:10500000C0010020D40100202DE9F84307018146AA
:105010000C461546FDF7AEFF2C4E8046F3191B7B60
:10502000002B38D134B905B1A8474046BDE8F84354
:10503000FDF7A4BF01210023254A06EB070ED2F895
:1050400000C08EF80C10CEF80850CEF80430BCF139
:10505000000F24D0DCF80010A14232D8DCF8043074
:105060002BB930E058689C4608B3034611461D68CA
:105070006A18A242F6D90CF10402641AF4511968B4
:105080003E44091B73604046C2F800E01960BDE869
:10509000F843FDF773BF4846FFF790FFC2E7F451AE
:1050A000C2F800E04046BDE8F843FDF767BF641A68
:1050B000641BF4514046C3F804E0BDE8F843FDF733
:1050C0005DBF6346DAE763460D46F1E7D401002091
:1050D000C0010020022330B500258FB052F82040D7
:1050E0008DF80F108DF80C30ADF80D0020680A4ACD
:1050F000049023798DF815508DF814302179E378D8
:1051000006A800911D2100F097FF03A80A2100F0D6
:10511000FBFA0FB030BD00BF106F00002DE9F04367
:10512000044685B002780E4602A8474900F0B8FF51
:10513000627845490DF10A0000F0B2FFA2784249B9
:1051400003A800F0ADFF0A2320468DF80E3000F0D2
:10515000B7FAC3B2082BADF80400C0F307202DD076
:10516000092B28D1092826D094F802C06778BCF111
:10517000000F2BD1331F002402E00134102C1AD071
:1051800053F8045F2A78002AF7D0AA78BA42F4D1FB
:10519000EA788242F1D100272C4A85F804C01368CE
:1051A0002F700133136000F08FF939466870324672
:1051B000A0B2FFF78FFF05B0BDE8F083092867783C
:1051C00094F802C0D6D105B0BDE8F083331F0024A7
:1051D00002E00134102C23D053F8045F2A78002A0F
:1051E000F7D14FF00109DFF8648085F804C0D8F8E2
:1051F0000030AF704B44E87085F80090C8F800307C
:1052000000F062F9324668704946A0B2FFF762FFCB
:10521000D8F800200E4B43F8242005B0BDE8F083F9
:1052200000244FF0FF3523460A4951F8042FAA42C3
:1052300038BF1C4603F1010338BF1546102BF4D1CB
:1052400056F82450CDE700BF086F0000140200207C
:10525000180200201402002008B5052000F062FBAF
:105260000022C270427082700271027008BD00BFDD
:1052700010B5152000F056FB0024034621460470AB
:1052800044708470C47000F1140203F8044F03F8F2
:10529000011F9342FBD110BD064B4FF400411B6828
:1052A00010221BB9044B19601A607047034B196038
:1052B0001A607047B4031043CC800844CC80084681
:1052C0002DE9F84F204D4FF0030B01244FF6FF7AE4
:1052D0001E4F1F4EDFF88C8005F10C0917E040F2DD
:1052E000AE314046FFF724F904EB4404194B0BEBB5
:1052F000C41423449B001B68003318BF012305F826
:10530000013BA9450BD057F8044F56F804BFE4B24F
:10531000082C4AFA0BF3E2D8DB07E5D4DFE70E4AA4
:10532000137883F0010313704FF480422BB90B4BB9
:105330001A60BDE8F84F00F0E1B8094B1A60BDE80B
:10534000F84F00F0DBB800BF580200209C6F00004F
:105350006C6F0000E000C41064020020CC800844A0
:10536000CC800846B06D00002DE9F047032682B0DE
:10537000012537460024DFF80081DFF800A1DFF8BF
:10538000009107E00C2C1AD058F8045F5AF82470EA
:1053900059F82460EDB22846002307223946FDF76C
:1053A0005BFF0F2E04F10104ECD80123324639468D
:1053B0002846CDE90033FDF7D3FE0C2CE4D1FBF7F2
:1053C0000FFA2A490020FBF719FA28490220FBF7B7
:1053D00015FA26490320FBF711FA24490420FBF7AC
:1053E0000DFA22490520FBF709FA20490620FBF7B0
:1053F00005FA1E490720FBF701FA1C490820FBF7B4
:10540000FDF91A490B20FBF7F9F920461749FBF77C
:10541000F5F917490D20FBF7F1F914490E20FBF7B8
:10542000EDF90023072206210220FDF715FF0123D5
:10543000042207210220FDF70FFF0422002311465A
:105440001046FDF709FF0422002310460E21FDF748
:1054500003FF0422002310460F21FDF7FDFE022268
:10546000044B1A6002B0BDE8F08700BFC1520000D3
:10547000995200000C8008469C6F00006C6F000081
:105480003C6F00000B2808B502D8044B185C08BD1F
:10549000034B044AA421044800F0DCF95802002020
:1054A000CC6F00002C6F0000E46F00004FF48042CE
:1054B00010B9034B1A607047024B1A60704700BF67
:1054C000CC800844CC800846014B1868704700BF68
:1054D0006802002000B583B000F09AF9034600206E
:1054E000C3F3072262F30700C3F3074262F30F20FE
:1054F0001B0E63F3174003B05DF804FB2DE9F04F7A
:10550000814683B0244E01250024DFF89480DFF823
:1055100094B0DFF894A013E0FFF7B4FF78B31F4B0B
:1055200004EB440213441A889B7801A84946ADF85D
:1055300004208370FFF7F2FD0C2D24D001340135D7
:10554000204616F8017BFFF79DFF8742F4D02046E6
:10555000FFF798FF58F8243006F8010C2046002B7E
:10556000DAD1FFF78FFF0028E6D0072CE4D1DBF873
:105570000030032B0ADD0023CBF80030DEE704EB1C
:1055800044035344CFE703B0BDE8F08F0133042B4D
:10559000CBF80030D2D1EEE76C020020247000007E
:1055A000F46F0000680200204870000008B5042174
:1055B0001120FDF74BFA01210848FCF7FBF8012107
:1055C0000748FCF7F7F801210648FCF7F3F8BDE8B7
:1055D000084001210448FCF7EDB800BF00550A005F
:1055E000001E040000750A000072040070B54FF040
:1055F00080420124304B5464D3F8B0202F49224319
:10560000C3F8B020D3F8E02082B042F00802C3F81B
:10561000E0200A6842F480520A60D3F8E02022F0C9
:105620000802C3F8E020D3F8B02022F00102C3F84A
:10563000B020FFF7BBFFFFF797FE204600F06CF8A5
:1056400000F04CF82046FFF731FF00F07FF8002013
:10565000FFF72CFF00F096F80028FBD0402000F068
:1056600061F90646041F00F13C05FFF7F5FD44F81B
:10567000040FAC42F9D1FFF7FBFD00F08DF810B933
:10568000002002B070BDFFF725FFC0F30722C0F372
:1056900007438DF804008DF805208DF8063006E0EC
:1056A0000120FFF703FF314601A8FFF737FD00F0A7
:1056B000ADF80028F4D1E3E700400E403440054047
:1056C0000022037882B0190961F3070203F00F0387
:1056D00063F30F22104602B0704700BF30B5084D8B
:1056E00089B001AC0FCD0FC495E80700054B84E8E5
:1056F0000700186801A9FBF737FE09B030BD00BFED
:105700006C70000018000020024B0A460146186821
:10571000FBF7AEBF1800002010B504460748FCF7A1
:1057200031FA00FB04F4064B0648A3FB0434640B77
:10573000C4610549BDE81040FDF736BE4041050093
:105740008988888800A401401C0000200A4B30B4DE
:10575000012010251A46094CD96925605860536A02
:105760009942FCD8102402210023054804605160AE
:1057700030BC5362704700BF00A40140CC80084693
:10578000CC800844034B1868A0F10100B0FA80F007
:1057900040097047980F104310B5184B86B002AC03
:1057A0000FCB84E80F002046FEF70AFA144C0A21BA
:1057B0002046FEF767FD0028F9D1FEF7F9F94FF40E
:1057C000806102460E48FEF717FC044610B1012026
:1057D00006B010BDFEF7ECF901230090094A084914
:1057E0000948FEF71BFB02210648FEF761F8234635
:1057F000214601220248FEF7DDFAE8E78870000042
:1058000028030020E002002078020020FEF776B98D
:1058100070B50E4C002326460D4D82B02370002338
:1058200004223146E86DFEF7D5FC2378002BF6D034
:105830000020617863F30700A27861F30F20E3781A
:1058400062F3174063F31F6002B070BD18030020BD
:10585000780200201FB51C46094B05461B68D86816
:1058600052B1084BCDE9013200912B462246064940
:1058700000F022F800F0F4FC044B1A46F2E700BFF7
:105880002C00002098700000A5700000D37000006C
:1058900008B5074B044613B10021AFF30080054B58
:1058A0001868836A03B19847204601F0AFF900BF3A
:1058B00000000000D47000000EB403B5014603AB35
:1058C000054853F8042B0068019300F009F902B071
:1058D0005DF804EB03B070472C00002070B5002584
:1058E0000C4E0D4CA41BA410A54209D101F090F957
:1058F00000250A4E0A4CA41BA410A54205D170BD78
:1059000056F8253098470135EEE756F82530984788
:105910000135F2E790000020900000209000002068
:1059200094000020024B0146186800F057B800BFF1
:105930002C00002003460244934200D1704703F834
:10594000011BF9E738B50546002943D051F8043C5E
:105950000C1F002BB8BFE41800F09AFE1E4A136813
:10596000104633B9636014602846BDE8384000F043
:1059700090BEA3420BD921686218934201BF1A68F6
:105980005B685218226063600460EDE713465A6852
:105990000AB1A242FAD919685818A0420BD120685E
:1059A0000144581882421960DED1106852680144DF
:1059B00019605A60D8E702D90C232B60D4E720681D
:1059C00021188A4201BF116852680918216062607B
:1059D0005C60C9E738BD00BF2807002070B5CD1C4A
:1059E00025F0030508350C2D38BF0C25002D064683
:1059F00001DBA94203D90C233360002070BD00F005
:105A000047FE214A1468214691B9204C23681BB9EE
:105A1000304600F001FB20602946304600F0FCFAD9
:105A2000431C24D10C233046336000F032FEE4E7FF
:105A30000B685B1B18D40B2B0FD90B60CC18CD5007
:105A4000304600F026FE04F10B00231D20F0070075
:105A5000C31AD3D05A42E250D0E74B688C4216BFEB
:105A6000636013600C46EBE70C464968CCE7C41C46
:105A700024F00304A04205D0211A304600F0CCFAED
:105A80000130CFD02560DBE7280700202C0700205D
:105A9000936810B4013B002B936007DA9469A3422A
:105AA00001DB0A2902D110BC00F01ABB1368581C94
:105AB00010601970084610BC7047F8B506460F46CE
:105AC0001446D518AC4201D1002007E03A4614F83C
:105AD000011B3046FFF7DCFF431CF3D1F8BD00008B
