:100000000000022081030000AD030000AD030000EA
:10001000AD030000AD030000AD030000AD03000020
:10002000AD030000AD030000AD030000AD03000010
:10003000AD030000AC030000AD030000AD03000001
:10004000AD0300008D6F0000D1670000AD0300001C
:10005000AD030000754E0000AD030000AD030000CD
:10006000AD030000AD030000AD030000C16F000050
:10007000F56F0000AD030000AD030000AD0300000C
:10008000AD030000AD030000AD030000AD030000B0
:10009000AD030000AD030000AD030000AD030000A0
:1000A000AD030000AD030000AD030000AD03000090
:1000B000AD030000AD030000AD030000AD03000080
:1000C000AD030000AD030000AD030000AD03000070
:1000D000AD030000AD030000AD03000010B5054CFA
:1000E000237833B9044B13B10448AFF300800123E4
:1000F000237010BD7C00002000000000407F000045
:1001000008B5034B1BB103490348AFF3008008BD9A
:100110000000000080000020407F0000154B002BF5
:1001200008BF134B9D46A3F5803A00218B460F462E
:100130001348144A121A07F0FEF90F4B002B00D097
:1001400098470E4B002B00D0984700200021040058
:100150000D000D48002802D00C48AFF3008007F0D6
:10016000BBF92000290007F0C5F807F0A1F900BF8E
:100170000000080000000220000000000000000055
:100180007C00002088020020000000000000000029
:1001900080B582B000AF03463960FB71FB79002B5C
:1001A0001FD0FB79012B19D0FB79022B13D0FB79DF
:1001B000032B0DD0FB79042B07D0FB79052B02D143
:1001C00041F6FF730FE000230DE04FF6FF730AE0E6
:1001D0004FF6FF7307E04FF6FF7304E04FF6FF732F
:1001E00001E04FF6FF733A68134103F00103002B5F
:1001F00004D140F227410A4805F019FE01223B686C
:1002000002FA03F30749FA7918461346DB00134450
:100210009B000B441833186000BF0837BD4680BDF3
:10022000747500000060004080B582B000AF786057
:100230007B68002B10DB7B68012B0DDC094A7B6897
:1002400012F83300074A7B68DB0013445B681946E9
:10025000FFF79EFF002301E04FF0FF3318460837F9
:10026000BD4680BDEC75000080B582B000AF3A4B52
:100270005B6C394A43F400535364384BD3F8203154
:10028000364A43F00403C2F82031344BD3F820310E
:10029000324A23F44073C2F82031304BD3F8B830DF
:1002A0002E4A23F47063C2F8B8302C4BD3F8B83020
:1002B0002A4A43F48063C2F8B830274B10221A62EE
:1002C00000BF254BDB6A03F02003002BF9D0244B41
:1002D0001B68234A43F001031360214BDB68204A6B
:1002E00043F08073D3601F4B1F4A1A601F4801F010
:1002F000B1FA034603F5D52303F2FC437B607B6828
:10030000DB081B4AA2FB03239B0A3B60194A3B689C
:10031000013B1361174B0222C3F8F020154B4FF439
:100320008072C3F804234FF06043134AC3F8B02F20
:100330004FF06043114AC3F8802E4FF06043D3F86A
:10034000003E4FF0604243F00103C2F8003E01233B
:1003500018460837BD4680BD00800C400060004054
:10036000F0ED00E0001000E0FF13014006000E0079
:1003700017916502000004E055CEACC509000100EC
:10038000064880470649074A074B9A42BEBF51F8C4
:10039000040B42F8040BF8E7FFF7C0FE2505000048
:1003A0004C7F0000000000207C000020FEE700BF22
:1003B00080B400AF034BDB6C1B0EDBB21846BD46AE
:1003C00080BC7047B081E00F80B582B000AF00F014
:1003D0001FF87860074B5B6803F00F037A6822FA16
:1003E00003F37B60044A7B6813607B681846083718
:1003F000BD4680BD00800C400800002080B400AFE6
:10040000024B1846BD4680BC704700BF006CDC0242
:1004100080B582B000AF334BDB6A03F47053B3F5A1
:10042000805F0AD0B3F5005F03D0B3F5006F08D04A
:100430000BE02D4B1B687B6047E04FF400437B6073
:1004400043E02A4B1B687B603FE0264BDB6803F4EC
:10045000E063B3F5007F1BD0B3F5007F05D8002B18
:1004600024D0B3F5807F16D02BE0B3F5806F09D090
:10047000B3F5A06F03D0B3F5407F06D021E01C4B4D
:100480007B6021E01B4B7B601EE01B4B7B601BE015
:100490001A4B7B6018E0FFF78BFF0346122B02D943
:1004A000174B7B6010E0174B7B600DE0FFF780FF80
:1004B0000346122B02D9144B7B6005E0134B7B6083
:1004C00002E000237B6000BF00BF064B1B689B0B54
:1004D00003F0070301337A68B2FBF3F318460837D9
:1004E000BD4680BD00800C400400002000000020BC
:1004F000003FAB01406F4001809FD500C0D8A700EE
:1005000040B56400C0CF6A00804F120040420F0027
:1005100080B400AF024B1B681846BD4680BC7047D4
:100520000000002080B400AF034B044A9A6000BF73
:10053000BD4680BC704700BF00ED00E00000000039
:1005400080B400AF4FF400431846BD4680BC7047EE
:1005500080B400AF4FF47A731846BD4680BC704734
:1005600080B400AF024B1B681846BD4680BC704784
:100570000400002080B500AF00F008FA034683F0C5
:100580000103DBB2002B02D0094800F023FA00235C
:1005900008220749812003F0F1F8064B1B789B00E5
:1005A000054A1946002006F0ABFA00BF80BD00BF27
:1005B000A80000209C0000207505000080B584B0D4
:1005C00000AF0346B9607A60FB7397F90F30002BD8
:1005D0000DD1BB68012B0AD1074B1B68002B06D03D
:1005E000054B1B68054A1268D2B210469847002393
:1005F00018461037BD4680BDA4000020980000209A
:1006000080B582B000AF78607B681B68094A1360D0
:100610007B685B68084A136008220021074806F0DF
:100620008AFF08220021064806F085FF00BF083730
:10063000BD4680BDA0000020A4000020A80000202E
:10064000B000002080B582B000AF78600D4B7A68B2
:100650001068516803C30C4B1B78002B03D07868DB
:1006600000F0F2F90AE0094B7A681068516803C398
:10067000002308220549812003F080F800BF0837D5
:10068000BD4680BDB00000209C000020A8000020D6
:1006900080B588B000AF78606FF00203FB617B68C3
:1006A0001B7803F06003DBB2002B53D17B681B780F
:1006B00023F07F03DBB2002B4CD07B681B7803F068
:1006C0001F03DBB2012B45D17B685B78062B00D082
:1006D00011E17B685B889BB21B0A9BB2222B15D170
:1006E00045233B617B689A79DB791B021343FB81CD
:1006F000FA893B69934228BF13461A460023804972
:10070000002003F03BF80023FB6121E07B685B885D
:100710009BB21B0A9BB2212B1AD17A4B1B68092270
:100720001946794806F0FCFE0923BB617B689A797B
:10073000DB791B021343FB82FA8ABB699A42A8BF8A
:100740001A4600237049002003F018F80023FB61CB
:1007500000BFD0E07B681B7803F06003DBB2202B86
:1007600040F0C9807B681B7803F01F03DBB2012BCC
:1007700040F0C1807B689B889BB2002B40F0BB801F
:100780007B685B78013B092B00F2B58001A252F82F
:1007900023F000BF07080000AD080000F7080000C4
:1007A000F7080000F7080000F7080000F70800004D
:1007B000F7080000BD0700004B0800007B685B885D
:1007C0009BB21B0A9BB2022B40F08E807B685B8839
:1007D0009BB2DBB2002B40F087807B68DB889BB24A
:1007E000012B40F081807B681B7823F07F03DBB214
:1007F000002B79D1454B01224549002002F0EEFE45
:100800000023FB6170E07B685B889BB21B0A9BB294
:10081000012B6BD17B685B889BB2DBB2002B65D16F
:100820007B68DB889BB2082B60D17B681B7823F048
:100830007F03DBB2002B59D00023082235498120E9
:1008400002F09CFF0023FB6150E07B685B889BB259
:10085000DBB2002B4CD17B68DB889BB2002B47D1ED
:100860007B681B7823F07F03DBB2002B40D17B68D1
:100870005B889BB21B0A9BB2DAB2274B1A70264BDD
:100880001B78002B06D0244B1B78052B02D8224B5B
:1008900006221A70002006F0D7F91F4B1B78002B98
:1008A00001D0FFF767FE0023FB6121E07B685B88D6
:1008B0009BB2002B1ED17B68DB889BB2012B19D128
:1008C0007B681B7823F07F03DBB2002B12D0104B28
:1008D000114A12781A70002301220D49002002F0FB
:1008E0004DFF0023FB6105E000BF04E000BF02E014
:1008F00000BF00E000BFFB6918462037BD4680BD41
:10090000FC750000A0000020B8000020BD0500001C
:1009100098000020B00000209C00002080B582B02C
:1009200000AF03460A46FB711346BB71BB79052B2A
:1009300014D1FB79062B04D0124B7D221A7000F0E3
:1009400075F8104B1B78002B18D00E4B1B789B00B2
:100950000D4A1946002006F0D3F80FE0FB79052B6D
:1009600006D1BB79062B03D0002006F06DF905E017
:10097000BB79062B02D1002006F066F900BF0837CC
:10098000BD4680BD9C0000207505000080B400AF0E
:10099000064B1A68054B5B689A420CBF0123002383
:1009A000DBB21846BD4680BC704700BF0002002085
:1009B00080B400AF064B1A68054B5B68D31A0F2B47
:1009C0008CBF01230023DBB21846BD4680BC7047B4
:1009D0000002002080B582B000AF7860FFF7D6FF3C
:1009E000034683F00103DBB2002B17D00E4B5B688C
:1009F0005A1C0D494A6003F00F037A680A49013313
:100A0000DB000B4403CB10605160074B5B68013384
:100A100003F00F03044A5360012300E0002318464B
:100A20000837BD4680BD00BF0002002080B400AF83
:100A3000044B00225A60034B00221A6000BFBD46DF
:100A400080BC70470002002080B582B000AF7860A3
:100A5000FFF7AEFF034683F00103DBB2002B18D093
:100A60000E4B1B685A1C0D490A6003F00F030B4A1A
:100A700001337968DB0013440A461068516803C3E8
:100A8000064B1B68013303F00F03044A1360012374
:100A900000E0002318460837BD4680BD0002002054
:100AA00080B483B000AF0346FB71FB79002B03D009
:100AB000054B01221A6602E0034B00221A6600BFB2
:100AC0000C37BD4680BC704700A0084080B483B09E
:100AD00000AF786000BF054B5A6E7B681340002B57
:100AE000F9D100BF0C37BD4680BC704700A008405C
:100AF00080B483B000AF7860054B9A6A7B68DB43B3
:100B0000034913408B6200BF0C37BD4680BC704761
:100B100000A0084080B500AF00222849002001F065
:100B20005FFD00222549012001F05AFD00222349E2
:100B3000022001F055FD00222049032001F050FD64
:100B400000221E49042001F04BFD00221B49052014
:100B500001F046FD00221949062001F041FD002266
:100B60001649072001F03CFD0022FF21002001F082
:100B700003FE0022FF21012001F0FEFD0022FF21E3
:100B8000022001F0F9FD0022FF21032001F0F4FD15
:100B90000022FF21042001F0EFFD0022FF210520AB
:100BA00001F0EAFD0022FF21062001F0E5FD002210
:100BB000FF21072001F0E0FD00BF80BD00F00FF035
:100BC00080B500AF00222649072001F009FD002270
:100BD0002449062001F004FD00222249052001F0ED
:100BE000FFFC00221F49042001F0FAFC00221D49ED
:100BF000032001F0F5FC00221A49022001F0F0FC6C
:100C000000221849012001F0EBFC00224FF02041A6
:100C1000002001F0E5FC00220721072001F0ACFDD7
:100C200000220721062001F0A7FD00220721052050
:100C300001F0A2FD00220721042001F09DFD002209
:100C40000721032001F098FD00220721022001F076
:100C500093FD00220721012001F08EFD00BF80BD21
:100C600000E00F5000E00FF080B582B000AF034607
:100C7000FB710121244800F07FFD0321234800F08F
:100C80008FFF4021224800F00FFC012001F0F8F80E
:100C90000121204800F070FD4FF0FF30FFF728FFE2
:100CA0001D4801F01BFB0121082001F07FFB012101
:100CB000102001F07BFB0121802001F077FB012156
:100CC0004FF4807001F072FB01214FF4007001F0CD
:100CD0006DFBFB79002B0DD04FF4402001F014FE8A
:100CE0004FF4803001F040FB0C4BDB6F0B4A43F0BC
:100CF0000803D367FFF70EFF4FF0FF30FFF7E6FE64
:100D000000BF0837BD4680BD0043020002001E0040
:100D100080002A0000362C00FC78000000800C4087
:100D200080B584B000AF03463960FB710023FB60DF
:100D30000023BB60FB790E2B6BD801A252F823F085
:100D40007D0D0000870D0000910D00009B0D00003F
:100D5000A50D0000AF0D0000B90D0000C30D00008F
:100D6000CD0D0000D70D0000E10D0000EB0D0000DF
:100D7000F50D0000FF0D0000090E00000123FB60CF
:100D80000C23BB6046E00023FB602023BB6041E0F6
:100D90000323FB602723BB603CE00223FB600C23A2
:100DA000BB6037E00023FB601C23BB6032E0032301
:100DB000FB600C23BB602DE00423FB600C23BB60B5
:100DC00028E00023FB601E23BB6023E00523FB60BB
:100DD0002723BB601EE00023FB602223BB6019E0D9
:100DE0000023FB602323BB6014E00723FB600C237C
:100DF000BB600FE00523FB600C23BB600AE0062309
:100E0000FB600C23BB6005E00723FB601D23BB6078
:100E100000E000BF3B68002B05D00122B968F868EC
:100E200001F0E4FA04E00022B968F86801F0DEFAA3
:100E300000BF1037BD4680BD80B58AB000AF786076
:100E4000786806F080FB0346BB6100233B624FF0ED
:100E5000FF30FFF73BFE0120FFF722FEFFF7B0FE59
:100E600000233B6245E03A6ABB699A4203DA7B6839
:100E70001B787B6201E020237B627B6A203B7B62E4
:100E8000214A7B6A32F81330FB820023FB6127E0A2
:100E90001E493A6A1346DB009B1A9B00CA18FB697D
:100EA00013440E331B783B6118493A6A1346DB0042
:100EB0009B1A9B00CA18FB6913441B78FB60FA8AD3
:100EC000FB6942FA03F303F00103002B05D0FB6832
:100ED00039690122184601F089FAFB690133FB6187
:100EE000FB690D2BD4DD7B6801337B603B6A0133EA
:100EF0003B623B6A062BB6DD0020FFF7D1FD00BF49
:100F00002837BD4680BD00BF44780000447600000D
:100F100080B487B000AFF860B9607A60FB6803F115
:100F20000473DA00BB6813449B007B617B697A68B9
:100F30001A6000BF1C37BD4680BC704780B485B0C6
:100F400000AF786039607B6803F10473DA003B68B6
:100F500013449B00FB60FB681B6818461437BD46B2
:100F600080BC704780B584B000AF78607B68002B90
:100F700003D07B68B3F5004F04D940F699210748A8
:100F800004F055FF7B68B3FA83F3DBB2C3F11F03B0
:100F9000FB60FB6818461037BD4680BD8C790000A9
:100FA00080B400AF034BDB6C1B0EDBB21846BD46B2
:100FB00080BC7047B081E00F80B400AF034BDB6CA6
:100FC0001B0CDBB21846BD4680BC7047B081E00FF9
:100FD00080B582B000AFFFF7EFFF03464A2B04D085
:100FE000792B02D0482B23D024E0174B1B699BB2EE
:100FF0001B029BB203F47C53FB80134B9B691B09C0
:101000001B0103F0F0039AB2FB881343FB800E4BE5
:10101000DB691B0903F00F039AB2FB881343FB80C3
:10102000FB88B3F5017F01D3084B09E0084B07E0CB
:10103000074B05E040F61F41064804F0F8FE002388
:1010400018460837BD4680BDD0FF0FE000366E0160
:101050000048E801047A000080B584B000AF7860F1
:101060000123FB60FFF7B4FF02467B68934204D87C
:101070000023FB600023BB600BE0FFF7A9FF0346E2
:101080005B007A689A4202D80123BB6001E0022328
:10109000BB60FA681E210848FFF73AFF064B5B6801
:1010A00023F48072BB681B02034913434B6000BFEB
:1010B0001037BD4680BD00BF00800C4080B582B0B7
:1010C00000AF1E210448FFF739FF78607B6818469F
:1010D0000837BD4680BD00BF00800C4080B582B09F
:1010E00000AF244B5B6903F4E063B3F5007F1CD0D1
:1010F000B3F5007F05D8002B25D0B3F5807F1FD036
:101100002AE0B3F5C06F24D0B3F5E06F1ED0B3F57D
:10111000407F21D1FFF744FF0346122B02D9164B23
:101120007B6021E0154B7B601EE0FFF739FF034633
:10113000122B02D9124B7B6016E0124B7B6013E03E
:10114000114B7B6010E0114B7B600DE0104B7B601E
:101150000AE0104B7B6007E000237B6040F69E4175
:101160000D4804F064FE00BF7B6818460837BD4692
:1011700080BD00BF00800C40804F120040420F0035
:1011800040B56400C0CF6A00C0D8A700809FD500DA
:10119000406F4001003FAB01047A000080B582B08F
:1011A00000AF0F4800F048FC0346FB70FB78072BAC
:1011B00005D0092B07D1FFF72BF978600BE0FFF77B
:1011C0008DFF786007E000237B6040F6D84105483A
:1011D00004F02DFE00BF7B6818460837BD4680BD71
:1011E00006000E00047A000080B485B000AF78607D
:1011F0003960204B5B6803F00703FB60FB68012B41
:1012000001D9042B02D10023FB7202E00123FB72FF
:1012100000BF7B68184A934207D9FB7A002B01D0A4
:10122000052300E00423FB6016E07B68124A93422A
:101230000BD87B68114A934207D9FB7A002B01D067
:10124000032300E00123FB6006E0FB7A002B01D0C2
:10125000022300E00023FB60064B5B6823F00702DB
:101260000449FB6813434B6000BF1437BD4680BC84
:10127000704700BF00000C400048E8010024F40063
:1012800080B582B000AF0E4BDB6B002B14BF012387
:101290000023FB710A4B41F67132DA63FFF7AEF8B7
:1012A000034600211846FFF79FFFFB79002B02D071
:1012B000034B0022DA6300BF0837BD4680BD00BF84
:1012C00000000C4080B584B000AF786039600C4BF2
:1012D000DB6B002B14BF01230023FB73084B41F68B
:1012E0007132DA6339687868FFF77EFFFB7B002B89
:1012F00002D0034B0022DA6300BF1037BD4680BD29
:1013000000000C4090B585B000AF78600023BB6052
:101310007B683B4A934208D03A4A934205D040F654
:101320001671394804F083FD00E000BF786800F0D2
:1013300083FB0346FB607B68314A934203D0314A0A
:10134000934206D00CE0314B9B6A03F00303FB6031
:101350000CE02E4B9B6A9B0803F00303FB6005E047
:1013600040F64571284804F062FD00BFFB68032B7E
:1013700038D801A252F823F0AF13000089130000FF
:101380009113000099130000FFF7DAF8B86032E01B
:10139000FFF7E6F8B8602EE0FFF716F80446FFF70F
:1013A0008DFE0346013324FA03F3BB6023E00023E0
:1013B000BB607B68124A934203D07B68114A934218
:1013C00018D1124B9A6A7B680D498B4201D11023C8
:1013D00000E0142322FA03F3002B0BD0FFF7B8F838
:1013E000B86007E00023BB604FF47761064804F063
:1013F0001EFD00E000BFBB6818461437BD4690BD17
:1014000002001E0003002000047A000000800C404F
:1014100080B483B000AF7860094B5B6D03F00103CB
:10142000002B07D100BF064B1A6D7B681340002BC1
:10143000F9D100E000BF0C37BD4680BC704700BF4B
:1014400000800C4080B582B000AF104800F0F4FA84
:101450000346FB70FB78032B07D0092B09D0022B26
:101460000BD1FFF77DF878600AE0FFF769F8786044
:1014700006E0FEF7CDFF786002E000237B6000BF4E
:101480007B6818460837BD4680BD00BF072326008D
:1014900080B400AF00BFBD4680BC704780B400AFD1
:1014A00000BFBD4680BC704790B585B000AF786086
:1014B00039607B681B0903F00F03FB60FB68013B8D
:1014C000082B00F23E8101A252F823F0F114000033
:1014D00043170000431700002F15000043170000BA
:1014E0004317000061150000B7150000C316000087
:1014F0003B68002B02D03B68082B04D941F27E21C7
:10150000954804F094FCFFF7BBFE944B1B6823F452
:10151000E0323B68013B9B03904913430B60FEF7AD
:1015200053FFB8600021B868FFF7CCFE0FE13B68BD
:10153000002B03D03B68B3F5007F04D941F2912121
:10154000854804F074FC3868FFF70CFD3860834B65
:101550009B6823F00F0281493B6813438B60F6E0E0
:101560003B68002B03D03B68B3F5007F04D941F200
:101570009921794804F05BFCFFF782FEFEF748FFF3
:1015800002463B68B2FBF3F31846FFF765FD386887
:10159000FFF7E8FC3860714B5B6823F00F026F497E
:1015A0003B6813434B60FEF70FFFB8600021B8683B
:1015B000FFF788FECBE07B68694A934227D0684AF0
:1015C000934203D8674A934207D073E0664A934236
:1015D00037D0664A934255D06CE03B68B3F5004F74
:1015E00004D941F2B4215C4804F021FC0420FFF747
:1015F0000FFF3868FFF7B6FC3860584B9B6E23F03E
:10160000F0023B681B01554913438B6658E03B6869
:10161000B3F5004F04D941F2C2214F4804F007FC52
:101620000420FFF7F5FE3868FFF79CFC38604B4B51
:101630009B6E23F470623B681B02484913438B6620
:101640003EE03B680F2B02D93B68802B04D941F266
:10165000D121414804F0EBFB0420FFF7D9FE3868A4
:10166000FFF780FC38603D4B9B6E23F44054102004
:10167000FFF778FC02463B689B1A1B03374A23435B
:1016800093661DE03B68082B04D941F2E121324802
:1016900004F0CDFB0420FFF7BBFE3868FFF762FCC7
:1016A00038602E4B9B6E23F003022C493B6813439A
:1016B0008B6605E041F2EF21274804F0B8FB00BF3C
:1016C00045E07B682A4A934203D02A4A934218D0C5
:1016D00030E03B68082B04D941F2F8211E4804F0A1
:1016E000A6FB4020FFF794FE3868FFF73BFC38600C
:1016F0001A4B1B6F23F0030218493B6813430B6717
:101700001EE03B68082B04D941F20731124804F06F
:101710008EFB4020FFF77CFE3868FFF723FC386023
:101720000E4B1B6F23F030023B681B010B49134328
:101730000B6705E041F21531074804F078FB00BF64
:1017400005E041F21B31044804F071FB00BF00BF0B
:101750001437BD4690BD00BF047A000000800C40E5
:10176000802616008016120080002A0080062E00B7
:1017700090071A0090171C0080B586B000AF786003
:101780000B46FB7000233B617B681B0A03F00F03D1
:10179000013B092B33D801A252F823F0D9170000DE
:1017A000DF170000C5170000FF170000FF1700003B
:1017B000E5170000EF170000FF170000FF170000FB
:1017C000F91700001B4B7B611B4800F043F80346F0
:1017D0001846FFF741FC18E0184B7B6115E0184BE9
:1017E0007B6112E0174B7B6101233B610DE0164BDF
:1017F0007B6110233B6108E0144B7B6105E041F203
:10180000A131134804F013FB10E07B681B0B03F0BD
:101810001F03FB603B69002B02D03869FFF7F8FD1E
:10182000FB781A46F9687869FFF772FB1837BD46EE
:1018300080BD00BF40800C400043020008800C4087
:1018400044800C4058800C4060800C4078800C40F4
:10185000047A000090B585B000AF78607B6803F42F
:101860007813B3F5D01F00F0AB80B3F5D01F1AD8B2
:10187000B3F5602F00F0BF80B3F5602F08D8B3F543
:10188000003F3CD0B3F5802F2DD0002B27D0BEE0F9
:10189000B3F5901F3CD0B3F5B01F47D0B3F5801F10
:1018A00000F0AD80B3E0B3F5181F00F0AC80B3F5E5
:1018B000181F0AD8B3F5F01F25D0B3F5001F7AD052
:1018C000B3F5E01F00F08980A1E0B3F5301F4ED0E2
:1018D000B3F5381F62D0B3F5281F35D097E0FEF777
:1018E00097FDF8609BE0FEF793FDF8604E4B9B6818
:1018F00003F00F03FA6822FA03F3FB608FE0FEF7B0
:1019000063FDF8608BE04948FFF7FCFCF86086E077
:101910004648FFF7F7FCF860434B9B6E1B0903F04A
:101920000F03FA6822FA03F3FB6078E03F48FFF701
:10193000E9FCF8603C4B9B6E1B0A03F00F03FA684E
:1019400022FA03F3FB606AE03848FFF7DBFCF8603B
:10195000354B9B6E1B0B03F003041020FFF702FBBB
:1019600003462344FA6822FA03F3FB6057E02F484A
:10197000FFF7C8FCF8602C4B9B6E1B0B03F00303B6
:10198000FA6822FA03F3FB60274BDB6F03F00703CF
:101990000133FA68B2FBF3F3FB6040E02348FFF742
:1019A000B1FCF860204B9B6E03F00303FA6822FA47
:1019B00003F3FB6033E01E48FFF7A4FCF8602EE061
:1019C0001B48FFF79FFCF860174B1B6F03F00303E6
:1019D000FA6822FA03F3FB6021E01548FFF792FC56
:1019E000F860114B1B6F1B0903F00303FA6822FA1E
:1019F00003F3FB6013E0FFF7D1FBF8600FE0FFF7A4
:101A00006DFBF8600BE0FFF71DFDF86007E00023B9
:101A1000FB6041F2C741074804F009FA00BFFB68C8
:101A200018461437BD4690BD00800C4002001E00D1
:101A300003002000047A000080B584B000AF786015
:101A40000123FB737B6803F00F03BB60BB68013BA2
:101A5000062B00F2938001A252F823F0791A0000BD
:101A6000AF1A0000EB1A00007D1B00007D1B000078
:101A7000271B0000491B0000474BDB6A03F470532F
:101A8000B3F5805F09D0B3F5005F03D0B3F5006F05
:101A900006D008E00223FB7308E00323FB7305E094
:101AA0000423FB7302E00523FB7300BF6EE03A4B97
:101AB0009B6A03F00303022B06D0032B07D0012BF4
:101AC00008D10323FB730FE00223FB730CE0062312
:101AD000FB7309E0304B9B6A03F48033002B02D088
:101AE0000A23FB7300E000BF50E02B4B9B6A03F01E
:101AF0000C03082B06D00C2B07D0042B08D1032392
:101B0000FB730FE00223FB730CE00623FB7309E079
:101B1000214B9B6A03F48013002B02D00A23FB7332
:101B200000E000BF32E01C4B1B6803F08053002B29
:101B300003D0B3F1805F03D028E00723FB7302E0FA
:101B40000923FB7300BF21E0134BDB6A03F460330E
:101B5000B3F5803F08D0B3F5003F08D0B3F5004F90
:101B600008D10923FB7308E00223FB7305E003237C
:101B7000FB7302E00123FB7300BF07E00023FB734C
:101B800041F6EE01054804F052F900BFFB7B184610
:101B90001037BD4680BD00BF00800C40047A0000B5
:101BA00080B588B000AF78600B46FB700323FB6103
:101BB0000323FB7600233B617B6803F00F03FB608C
:101BC000FB68013B062B00F2478101A252F823F08B
:101BD000ED1B0000E31C0000E31C0000591E000088
:101BE000591E0000B11D0000E71D0000FB78023BFC
:101BF000082B52D801A252F823F000BF211C00008C
:101C00002B1C0000351C0000771C00009B1C0000F2
:101C10009B1C00009B1C00009B1C00008F1C0000F4
:101C20000423FB610023FB763DE00323FB610123DA
:101C3000FB7638E00223FB610223FB76FFF7C8F94D
:101C4000034601331846FFF707FAFEF761FC024628
:101C5000864B9A4206D9864B1B68854A43F060033F
:101C6000136020E0824B1B6823F06003804A43F03E
:101C70002003136017E00123FB610323FB76FFF7CA
:101C8000A7F9034601331846FFF7E6F90BE041F6E2
:101C9000AF11784804F0CBF8E4E041F6B411754890
:101CA00004F0C5F8DEE0FB7E01220121184600F0B9
:101CB0000FF9FFF7E5FAFFF7EBFB6D4AFB6953629B
:101CC0006D48FFF7C7FD03461846FFF7C5F9FEF755
:101CD0007BFBB8600021B868FFF7F4FAFFF7DEFB82
:101CE000C0E0FB78013B092B3CD801A252F823F05D
:101CF000191D00001F1D00002F1D0000651D0000A4
:101D0000651D00003F1D0000651D0000651D0000F1
:101D1000651D00005B1D000000237B6128E001229F
:101D20000121002000F0D4F802237B6120E0012291
:101D30000121012000F0CCF801237B6118E0FEF7BF
:101D400043FBB860B868FFF787F9012204214B48CC
:101D5000FFF7DEF803237B610AE000237B610123A8
:101D60003B6105E041F65F21424804F060F879E00C
:101D7000FB68022B0DD13E4B9B6A23F4803323F08A
:101D800003037A691A433B691B04394913438B6285
:101D900068E0374B9B6A23F4801323F00C037A69C5
:101DA00092001A433B691B05314913438B6259E08A
:101DB000FB78072B02D0092B07D00DE02C4B1B68BA
:101DC0002B4A23F0805313600CE0294B1B68284AF0
:101DD00043F08053136005E041F6BA21254804F032
:101DE00026F83FE03EE0FB78032B13D0092B21D0EF
:101DF000022B2AD101220121002000F069F81C4B9E
:101E000040225A6200BF1A4BDB6A03F48033002B76
:101E1000F9D020E001220121012000F059F8144BF3
:101E200060225A6200BF124BDB6A03F40033002BBE
:101E3000F9D010E00E4B20225A6200BF0C4BDB6A37
:101E400003F40043002BF9D005E041F6F9210948DD
:101E500003F0EDFF06E005E041F6EF31054803F041
:101E6000E6FF00BF2037BD4680BD00BF0048E80147
:101E700000800C40047A00000043020040800C40C7
:101E800080B582B000AF78607B68802B04D941F6C2
:101E90003F710D4803F0CBFF0C4B9B6D03F0080323
:101EA000002B0CD17B6803F007037B60074BDB6FD3
:101EB00023F0070205497B681343CB6700E000BFAE
:101EC0000837BD4680BD00BF047A000000800C408A
:101ED00080B586B000AF0346FB710B46BB7113465D
:101EE0007B71FB79042B32D801A252F823F000BF9A
:101EF0003D1F00002F1F0000131F0000051F0000E2
:101F0000211F000001233B610223FB6001237B6151
:101F100023E004233B610823FB6003237B611CE077
:101F200010233B612023FB6005237B6115E04023E8
:101F30003B618023FB6007237B610EE04FF48073DD
:101F40003B614FF40073FB6009237B6105E041F6C0
:101F5000F5710E4803F06BFF14E0BB79002B0ED037
:101F60000B4A3B6913627B79002B0BD000BF796968
:101F70000848FEF7E3FF0346002BF8D002E0044ACE
:101F8000FB6813621837BD4680BD00BF047A0000AD
:101F900000800C402C800C4080B400AF72B600BFB3
:101FA000BD4680BC704780B400AF62B600BFBD467E
:101FB00080BC704780B483B000AFEFF310833B6008
:101FC0003B687B6072B67B6818460C37BD4680BCA8
:101FD000704780B483B000AF78607B68002B00D17D
:101FE00062B600BF0C37BD4680BC704780B582B07A
:101FF00000AF03463960FB71FB79002B1FD0FB79E2
:10200000012B19D0FB79022B13D0FB79032B0DD0B8
:10201000FB79042B07D0FB79052B02D141F6FF7326
:102020000FE000230DE04FF6FF730AE04FF6FF7359
:1020300007E04FF6FF7304E04FF6FF7301E04FF641
:10204000FF733A68134103F00103002B04D140F2FF
:10205000DD310A4803F0EBFE01223B6802FA03F38C
:102060000749FA7918461346DB0013449B000B44DA
:102070001433186000BF0837BD4680BD187A0000D1
:102080000060004080B582B000AF03463960FB714C
:10209000FB79002B1FD0FB79012B19D0FB79022B88
:1020A00013D0FB79032B0DD0FB79042B07D0FB79E0
:1020B000052B02D141F6FF730FE000230DE04FF630
:1020C000FF730AE04FF6FF7307E04FF6FF7304E07B
:1020D0004FF6FF7301E04FF6FF733A68134103F0C8
:1020E0000103002B04D140F20C410A4803F09FFE8B
:1020F00001223B6802FA03F30749FA7918461346AE
:10210000DB0013449B000B441033186000BF0837FA
:10211000BD4680BD187A00000060004080B584B0E4
:1021200000AFB9607B600346FB731346BB73FB7B58
:10213000002B1FD0FB7B012B19D0FB7B022B13D074
:10214000FB7B032B0DD0FB7B042B07D0FB7B052BEC
:1021500002D141F6FF730FE000230DE04FF6FF734D
:102160000AE04FF6FF7307E04FF6FF7304E04FF607
:10217000FF7301E04FF6FF73BA68134103F00103E8
:10218000002B04D14FF48E71394803F050FEBB7B15
:10219000002B0DD07B68002B05D0FB7BB96818465F
:1021A000FFF770FF04E0FB7BB9681846FFF71EFFDE
:1021B000BB68072B20D82F49FA7B1346DB0013445A
:1021C0009B000B4404331A68BB689B000F2101FA83
:1021D00003F3DB431340B97BBA68920001FA02F2C1
:1021E00011462448FA7B19431346DB0013449B0035
:1021F00003440433196025E01E49FA7B1346DB00D3
:1022000013449B000B4408331A68BB6803F18043F6
:10221000083B9B000F2101FA03F3DB4302EA0301B1
:10222000BA7BBB6803F18043083B9B0002FA03F3CF
:102230001048FA7B19431346DB0013449B00034408
:1022400008331960BB7B002B0DD17B68002B05D0B8
:10225000FB7BB9681846FFF715FF04E0FB7BB96804
:102260001846FFF7C3FE00BF1037BD4680BD00BF54
:10227000907A00000060004080B483B000AF034655
:10228000FB71FB79002B06D0084B1B68074A43F013
:102290000103136005E0054B1B68044A23F00103AA
:1022A000136000BF0C37BD4680BC704700A00840DB
:1022B00080B487B000AFF860B9607A60FB6803F162
:1022C0000473DA00BB6813449B007B617B697A6806
:1022D0001A6000BF1C37BD4680BC704780B584B013
:1022E00000AF78601E4B5B68FB607B68002B03D1FE
:1022F00046211C4803F09BFD0020FFF7BDFFFB6853
:1023000023F4830323F01F03FB607B685B68FA6898
:102310001343FB607B681B7A1A46FB681343FB6020
:102320007B685B7A1A46FB681343FB607B68DB685B
:10233000FA681343FB607B681B8A1A46FB681343E9
:10234000FB60074AFB6853607B681B78002B02D058
:102350000120FFF791FF00BF1037BD4680BD00BFD1
:1023600000A00840A47A000080B485B000AF786077
:102370000D4B5B68FB60FB6823F48033FB607B687C
:10238000002B08D0B3F5803F00D005E0FB6843F494
:102390008033FB6000E000BF034AFB68536000BF6E
:1023A0001437BD4680BC704700A0084080B483B09D
:1023B00000AF03460A46FB8013467B717B79002BF6
:1023C00006D0094B9A68FB88074913438B6006E0E7
:1023D000054B9A68FB88DB43034913408B6000BFC1
:1023E0000C37BD4680BC704700A0084080B584B063
:1023F00000AFF860B9601346FB71FB68072B04DD82
:102400004FF48C71654803F012FDBB68272B04DD87
:1024100040F21F11614803F00AFDFB68072B00F230
:10242000B38001A252F823F0492400007124000077
:1024300099240000C1240000E924000011250000B7
:102440003925000061250000BB681F2B06DCBB6836
:10245000FA7919465248FFF72BFF9BE0BB68203BF7
:10246000BB60BB68FA7919464E48FFF721FF91E03F
:10247000BB681F2B06DCBB68FA7919464A48FFF790
:1024800017FF87E0BB68203BBB60BB68FA79194641
:102490004648FFF70DFF7DE0BB681F2B06DCBB68DD
:1024A000FA7919464248FFF703FF73E0BB68203B07
:1024B000BB60BB68FA7919463E48FFF7F9FE69E050
:1024C000BB681F2B06DCBB68FA7919463A48FFF750
:1024D000EFFE5FE0BB68203BBB60BB68FA79194642
:1024E0003648FFF7E5FE55E0BB681F2B06DCBB68EE
:1024F000FA7919463248FFF7DBFE4BE0BB68203B18
:10250000BB60BB68FA7919462E48FFF7D1FE41E05F
:10251000BB681F2B06DCBB68FA7919462A48FFF70F
:10252000C7FE37E0BB68203BBB60BB68FA79194641
:102530002648FFF7BDFE2DE0BB681F2B06DCBB68FD
:10254000FA7919462248FFF7B3FE23E0BB68203B27
:10255000BB60BB68FA7919461E48FFF7A9FE19E06F
:10256000BB681F2B06DCBB68FA7919461A48FFF7CF
:102570009FFE0FE0BB68203BBB60BB68FA79194641
:102580001648FFF795FE05E040F28911034803F075
:102590004EFC00BF00BF1037BD4680BDA47A0000CE
:1025A00040A0084050A0084044A0084054A0084063
:1025B00048A0084058A008404CA008405CA0084033
:1025C000CCA00840B4A00840D0A00840B8A0084063
:1025D000D4A00840BCA00840D8A00840C0A0084033
:1025E00080B586B000AFF860B9607A60FB68072BF1
:1025F00004DD4FF4D1715E4803F019FCFB68072B32
:1026000000F2AC8001A252F823F000BF2D2600009A
:10261000512600007526000099260000BD26000006
:10262000E52600000D27000035270000514B1B6CEC
:102630007B61BB68DB437A6913407B61BA687B6866
:1026400013407A6913437B614A4A7B6913648BE0C8
:10265000484B5B6C7B61BB68DB437A6913407B61F1
:10266000BA687B6813407A6913437B61414A7B698E
:10267000536479E03F4B9B6C7B61BB68DB437A69B9
:1026800013407B61BA687B6813407A6913437B61AE
:10269000384A7B69936467E0364BDB6C7B61BB68CF
:1026A000DB437A6913407B61BA687B6813407A69BF
:1026B00013437B612F4A7B69D36455E02D4BD3F8DC
:1026C000CC307B61BB68DB437A6913407B61BA68BD
:1026D0007B6813407A6913437B61264A7B69C2F8A1
:1026E000CC3041E0234BD3F8D0307B61BB68DB4377
:1026F0007A6913407B61BA687B6813407A69134337
:102700007B611C4A7B69C2F8D0302DE0194BD3F8AD
:10271000D4307B61BB68DB437A6913407B61BA6864
:102720007B6813407A6913437B61124A7B69C2F864
:10273000D43019E00F4BD3F8D8307B61BB68DB4352
:102740007A6913407B61BA687B6813407A691343E6
:102750007B61084A7B69C2F8D83005E04FF4F1711B
:10276000034803F064FB00BF00BF1837BD4680BDBF
:10277000A47A000000A0084080B586B000AFF860E1
:10278000B9607A60FB68072B04DD4FF4FD715C488B
:1027900003F04DFBFB68072B00F2AC8001A252F85E
:1027A00023F000BFC5270000E92700000D28000026
:1027B00031280000552800007D280000A5280000D1
:1027C000CD2800004F4B1B6D7B61BB68DB437A69F2
:1027D00013407B61BA687B6813407A6913437B615D
:1027E000484A7B69136586E0464B5B6D7B61BB683D
:1027F000DB437A6913407B61BA687B6813407A696E
:1028000013437B613F4A7B69536574E03D4B9B6D8D
:102810007B61BB68DB437A6913407B61BA687B6884
:1028200013407A6913437B61364A7B69936562E0A2
:10283000344BDB6D7B61BB68DB437A6913407B61A2
:10284000BA687B6813407A6913437B612D4A7B69C0
:10285000D36550E02B4BD3F8B4307B61BB68DB43CE
:102860007A6913407B61BA687B6813407A691343C5
:102870007B61244A7B69C2F8B4303CE0214BD3F839
:10288000B8307B61BB68DB437A6913407B61BA680F
:102890007B6813407A6913437B611A4A7B69C2F8EB
:1028A000B83028E0174BD3F8BC307B61BB68DB4302
:1028B0007A6913407B61BA687B6813407A69134375
:1028C0007B61104A7B69C2F8BC3014E00D4BD3F831
:1028D000C0307B61BB68DB437A6913407B61BA68B7
:1028E0007B6813407A6913437B61064A7B69C2F8AF
:1028F000C03000E000BF00BF1837BD4680BD00BF3C
:10290000A47A000000A0084080B483B000AF7860D3
:10291000064B5B6823F4E01204497B6813434B6069
:1029200000BF0C37BD4680BC704700BF00A0084008
:1029300080B584B000AF78607B68002B03D147215D
:102940001B4803F074FA1B4B5B69DBB29B00DBB2E4
:1029500003F03C03FB73174B1B699B09DBB203F0CD
:102960000303DAB2FB7B1343FB737B68FA7B9A7039
:10297000104B1B69DBB203F03F03DAB27B685A707D
:102980000C4B9B691B09DBB21B01FB73094BDB6919
:102990001B09DBB203F00F03DAB2FB7B1343FB73BB
:1029A0007B68FA7B1A7000BF1037BD4680BD00BF40
:1029B000B87A0000D0FF0FE080B483B000AF786039
:1029C0007B680D4A93420BD07B680C4A934207D038
:1029D0007B680B4A934203D07B680A4A934201D139
:1029E000012300E0002303F00103DBB218460C379B
:1029F000BD4680BC704700BF00000140000401409C
:102A000000080140000C014080B584B000AF786040
:102A100039607868FFF7D0FF0346002B03D1A0216F
:102A2000374803F004FA0023FB603B681B7883F00F
:102A30000103DBB2002B02D07B6802225A607B6864
:102A400000225A623B689B781A063B68DB781B04BD
:102A50001A433B689B799B021A433B68DB791B0254
:102A600013433A68127A13433A685278002A01D025
:102A7000402200E0002213433A68527A002A01D033
:102A8000802200E0002213433A68927A002A01D0A3
:102A9000202200E0002213433A68D27A002A01D0B3
:102AA000102200E0002213433A68127B002A01D072
:102AB000082200E000221343FB603B681B79002BD7
:102AC00002D04FF4005200E000223B685B79002BFB
:102AD00002D04FF0805300E000231343FA68134301
:102AE000FB607B68FA681A603B681B78002B02D099
:102AF0007B6801225A6000BF1037BD4680BD00BF11
:102B0000487B000080B584B000AFF860B9607A609F
:102B1000F868FFF751FF0346002B03D1EC2128484A
:102B200003F085F9BB68022B03D9ED21244803F09B
:102B30007EF97B681B789A067B685B781B061A43D4
:102B40007B689B781B041A437B68DB781B031A4362
:102B50007B681B799B021A437B685B791B021343DA
:102B60007A68927913437A68D279002A02D04FF4B6
:102B7000001200E0002213437A68127A002A02D081
:102B80004FF4801200E0002213437A68527A002A40
:102B900001D0102200E0002213437A68927A002AC2
:102BA00001D0042200E000221A43F968BB68033315
:102BB0001B010B441A6000BF1037BD4680BD00BF2B
:102BC000487B000080B483B000AF0346FB7197F9E7
:102BD0000730002B0BDBFB7903F01F02064997F946
:102BE00007305B09012000FA02F241F8232000BF00
:102BF0000C37BD4680BC704700E100E080B483B074
:102C000000AF0346FB7197F90730002B0CDBFB7913
:102C100003F01F02074997F907305B09012000FA0A
:102C200002F2603341F8232000BF0C37BD4680BC60
:102C3000704700BF00E100E080B400AF074B03F530
:102C4000703308331B68054923F0010201F5703326
:102C500008331A6000BFBD4680BC704700400C407E
:102C600080B400AF074B03F5703308331B68054988
:102C700043F0010201F5703308331A6000BFBD460E
:102C800080BC704700400C4080B400AF064B5B68CE
:102C900003F00103002B14BF01230023DBB218460D
:102CA000BD4680BC704700BF00400C4080B400AF00
:102CB000084B03F57033183300221A60054B03F5F7
:102CC000703318334FF4C0521A6000BFBD4680BC49
:102CD000704700BF00400C4080B584B000AF786002
:102CE0000023FB7307F10C031946786800F010F815
:102CF0000346002B07D1BB8903F00103002B14BF4F
:102D000001230023FB73FB7B18461037BD4680BDB3
:102D100080B487B000AF78603960FF23FB757B68B3
:102D20001B78002B1DD07B689B785A011F4B1344E6
:102D30001B683B613B6903F44023FB60FB68B3F510
:102D4000402F03D0FB68B3F5002F27D13B695B0D03
:102D50009BB203F001039AB23B681A800023FB7513
:102D60001CE07B689B785A01114B13441B683B6144
:102D70003B6903F44023FB60FB68B3F5402F03D0AD
:102D8000FB68B3F5002F09D13B695B0D9BB203F0E3
:102D900001039AB23B681A800023FB7597F917303C
:102DA00018461C37BD4680BC704700BF0009104064
:102DB000000B104080B483B000AF7860054B7A6898
:102DC00003F5723303F58A731A6000BF0C37BD46F2
:102DD00080BC704700400C4080B483B000AF786086
:102DE000054B7A6803F5723303F545731A6000BF2B
:102DF0000C37BD4680BC704700400C4080B483B0A7
:102E000000AF7860396010497B6843F4002201F517
:102E1000723303F588731A600B4B03F5723303F5B5
:102E200080731B6823F03C423B681343064943F020
:102E3000044201F5723303F580731A6000BF0C374A
:102E4000BD4680BC704700BF00400C4080B483B0DA
:102E500000AF7860396010497B6843F4002201F5C7
:102E6000723303F544731A600B4B03F5723303F5A9
:102E700040731B6823F03C423B681343064943F010
:102E8000044201F5723303F540731A6000BF0C373A
:102E9000BD4680BC704700BF00400C4080B487B086
:102EA00000AF78600023FB607B681B69002B04D1B6
:102EB00001237B6100233B610DE07B681B697A681D
:102EC00092891344013B7A689289B3FBF2F37B61E8
:102ED0007B681B693B617B689B785A01184B1344E4
:102EE0001B6903F000423B6942EA03017B69DA0493
:102EF0007B689B785801124B03440A431A617B6834
:102F000099687B689B785A010D4B13440A465A61B5
:102F10007B689B785A010A4B13441B6823F03C42A0
:102F2000FB681A437B689B785901054B0B4442F0C0
:102F300004421A6000BF1C37BD4680BC704700BF0A
:102F40000009104080B487B000AF78600023FB60B8
:102F50007B681B69002B05D101237B617B689B8902
:102F60003B6111E07B681B697A6892891344013BDD
:102F70007A689289B3FBF2F37B617B689B891A467E
:102F80007B6902FB03F33B617B689B785A011A4B18
:102F900013441B6903F060423B6942EA03017B6909
:102FA000DA047B689B785801134B03440A431A6187
:102FB0007B683A699A617B6899687B689B785A015B
:102FC0000D4B13440A465A617B689B785A010A4BA1
:102FD00013441B6823F03C42FB681A437B689B78D0
:102FE0005901054B0B4442F004421A6000BF1C37E4
:102FF000BD4680BC704700BF000B104080B582B05A
:1030000000AF78607B689B78002B03D1786800F074
:1030100009F802E0786800F043F800BF0837BD46C1
:1030200080BD000080B584B000AF78607B681B78FD
:10303000002B1FD07B681B69002B02D17B6801220B
:103040005A707B689B681846FFF7B4FE7B681B6963
:10305000FB607B689B897B817A89FB689A4228BFE9
:103060001A460E4B1B68D3F8A43019461046FFF7DA
:10307000C5FE0FE07B689B681846FFF7ADFE7B68D6
:103080009B891A46054B1B68D3F8A4301946104695
:10309000FFF7DCFE00BF1037BD4680BD0C000020EE
:1030A00080B582B000AF78607B681B78002B03D0BE
:1030B0007868FFF7F3FE02E07868FFF743FF00BF90
:1030C0000837BD4680BD000080B485B000AF034620
:1030D000FB710023BB6097F90730002B09DA184B0E
:1030E0001A68FB7903F00F03134493F88430FB60F4
:1030F00008E0134B1A68FB7903F00F03134493F8AD
:103100009430FB60FB68002B0BD00D4B1968FA68FC
:1031100013469B001344DB0030330B440433BB6085
:1031200008E0FB7903F00F03002B03D1044B1B686D
:103130003433BB60BB6818461437BD4680BC70474B
:103140000C00002080B400AF034B1B6893F82030C4
:103150001846BD4680BC70470C00002080B58EB07C
:1031600000AF7860002201210120FEF7B1FE11209E
:10317000FEF762FC0346042B03D004211120FEF766
:103180000FFD03F033FC894B1B68A8220021184671
:1031900004F0D1F9854B1A68844B1B6804321A601D
:1031A000824B1B687A6812685A62804B1B687A6887
:1031B00052689A627D4B1B687A689268DA627B4B30
:1031C0001B687A68127B9A77784B1B68072283F812
:1031D0002020764B1B68002283F82120734B1B684C
:1031E000002283F82220714B1B687A6852691A63A7
:1031F0006E4B1B6800225A776C4B1B683433BB61E3
:10320000BB6900221A70BB6900229A60BB69002268
:103210009A70BB690122DA81BB690022DA70BB694E
:1032200000221A71BB6900225A717B681B68DB7926
:103230009AB2BB699A81BB699B89202B05D15B4BF4
:103240001B680122C3F8A4200CE0BB699B89402BBA
:1032500005D1564B1B680022C3F8A42002E06FF092
:103260000303AEE1BB6900221A61BB6900225A6107
:10327000BB69002283F82020BB6900225A62BB6927
:103280009B899B089BB21A46BB69DA61BB69DB6903
:103290007A681269127802FB03F37B62BB69DB690F
:1032A00001337A681269127802FB03F3BB620023D0
:1032B0007B6300233B620023FB613C4B1B689B6AE2
:1032C000FB623A4B1B689B6A5B889BB21A46FB6A9F
:1032D00013447B61012387F83330FCE0FB6A1B78E1
:1032E000002B07D14FF4D171314802F0A0FD6FF0EF
:1032F000030366E1FB6A01331B78052B40F0C580B0
:103300007B6B01337B63FB6ABB60284B19687A6B6C
:1033100013469B001344DB0030330B440433BB6182
:10332000BB689B785BB2DBB2DB09DAB2BB691A70AF
:10333000BB6900229A60BB689A78BB69DA70BB6986
:10334000DB7803F00F03DAB2BB699A70BB699B7834
:103350001A46012393409AB2BB69DA81BB68DB78D5
:1033600003F00303DAB2BB691A71BB689B889AB297
:10337000BB699A81BB6900221A61BB6900225A614C
:10338000BB69002283F82020BB6900225A627B6857
:103390001A697B6B13441B78002B0BD14FF4E2713D
:1033A000034802F044FD6FF003030AE10C00002023
:1033B000BC7B0000BB691B78002B36D03B6A013315
:1033C0003B6297F833305A1C87F83320BA6953713F
:1033D000BB699B890333002B00DA03339B1019462A
:1033E0007B681A697B6B13441B7803FB01F31A4655
:1033F000BB69DA61754B1B68BA69927811467A6BC2
:10340000D2B20B4483F88420BB69DB697A6A134427
:103410007B62BB699B78062B57D940F2D1116C486F
:1034200002F005FD6FF00303CBE0FB690133FB61A4
:10343000BB699B890333002B00DA03339B100133F4
:103440007A6811697A6B0A44127802FB03F31A4610
:10345000BB69DA615D4B1B68BA69927811467A6B79
:10346000D2B20B4483F89420BB69DB69BA6A134477
:10347000BB62BB699B78062B27D94FF4EE71544889
:1034800002F0D5FC6FF003039BE0FB6A01331B786D
:10349000042B1AD1FB6AFB60FB68DB78002B14D18C
:1034A0004A4B1B68DA7FFB689B789A4207D04FF43F
:1034B000F371474802F0BBFC6FF0030381E0434B1C
:1034C0001B68DA7F0132D2B2DA77FB6A1B781A46C0
:1034D000FB6A1344FB62FA6A7B699A42FFF4FEAE10
:1034E000BB6A1933BB62394B1B689B6A1A79374B2D
:1034F0001B68DB7F9A4207D04FF4FC71344802F01E
:1035000096FC6FF003035CE07B6B012B07D04FF45C
:10351000FF712F4802F08BFC6FF0030351E03B6A10
:10352000062B07D94FF40171294802F080FC6FF097
:10353000030346E0FB69062B07D940F20A21244821
:1035400002F075FC6FF003033BE0FEF733FD3861DA
:10355000204B1B6C1F4A43F00C03136409211E48C7
:10356000FEF71EFBFFF768FB796AB86A02F0ACFC55
:103570000346002B0FD1FFF799FBFFF771FB0520E6
:10358000FFF73CFB0520FFF71DFBFFF77DFB034624
:10359000002B0FD00AE03869FEF71BFD40F23F21F7
:1035A0000B4802F044FC6FF003030AE0022000F035
:1035B000ADF802E0002000F0A9F83869FEF709FD37
:1035C000002318463837BD4680BD00BF0C000020E0
:1035D000BC7B000000800C400723260080B586B02D
:1035E00000AFF860B9607A603B60FB68DBB21846F8
:1035F000FFF76AFD78617B69002B07D140F27321E8
:10360000414802F014FC6FF0030378E07B68B3F5E7
:10361000002F08DA7B699B891A467B6893FBF2F3DB
:10362000B3F5806F07DB40F27A21374802F0FFFBE9
:103630006FF0030363E0BB6803F00303002B07D0C4
:103640004FF42071304802F0F2FB6FF0030356E0B4
:10365000FEF7B0FC38617869FFF73EFB0346002BAC
:1036600005D03869FEF7B5FC6FF0040347E07B69CD
:1036700093F82030002B05D03869FEF7AAFC6FF0D4
:1036800001033CE07B699B78002B0AD0FFF75AFDD1
:103690000346052B05D03869FEF79BFC6FF0080345
:1036A0002DE07B69BA689A607A687B691A617B69E8
:1036B00000225A617B699B78002B03D17B69002231
:1036C0001A700EE07B691B78002B0AD03869FEF770
:1036D00080FC4FF428710C4802F0A9FB6FF0030343
:1036E0000DE07B69022283F820207B693A685A62E8
:1036F0007869FFF783FC3869FEF76BFC00231846F6
:103700001837BD4680BD00BFBC7B000080B584B0CB
:1037100000AF0346FB71184B1B6893F82030FB7316
:10372000FB79062B04D1144B1B68FA7B83F821200C
:10373000114B1A68104B1B6892F8202083F8222046
:103740000D4B1B68FA7983F820200B4B1B681B6B11
:103750005B68002B0BD0FA7BFB799A4207D0064BB3
:103760001B681B6B5B68F979FA7B1046984700BFB2
:103770001037BD4680BD00BF0C00002080B586B06C
:1037800000AFF860B9607A603B60FB68DBB2184656
:10379000FFF79AFC78617B69002B07D140F27D31FD
:1037A000424802F044FB6FF003037BE07B68B3F513
:1037B000002F08DA7B699B891A467B6893FBF2F33A
:1037C000B3F5806F07DB4FF46171384802F02FFBCF
:1037D0006FF0030366E0BB6803F00303002B07D020
:1037E00040F28A31314802F022FB6FF0030359E0C6
:1037F000FEF7E0FB38617869FFF76EFA0346002BAD
:1038000005D03869FEF7E5FB6FF004034AE07B69F9
:1038100093F82030002B05D03869FEF7DAFB6FF003
:1038200001033FE07B699B78002B0AD0FFF78AFCFD
:103830000346052B05D03869FEF7CBFB6FF0080374
:1038400030E07B69BA689A607A687B691A617B6943
:1038500000225A617B699B78002B03D17B6901228E
:103860001A7011E07B691B7883F00103DBB2002B37
:103870000AD03869FEF7ADFB40F2AA310B4802F0DE
:10388000D6FA6FF003030DE07B69012283F8202054
:103890007B693A685A627869FFF7B0FB3869FEF7CE
:1038A00098FB002318461837BD4680BDBC7B00003E
:1038B00080B485B000AF78600B46FB70FB78002BBE
:1038C00003D07B68002283F820207B681B78002BC4
:1038D00030D07B68DB89FB607B689B785A01344B76
:1038E00013441B6823F07053BB60BB6803F40043B0
:1038F000002B13D1BA682F4B13407A689289134377
:103900007A681279920413437A68527992051343C4
:1039100043F0C05343F40043BB6003E0BB6843F093
:103920008053BB607B689B785A01214B1344BA6873
:103930001A602CE07B68DB891B04FB607B689B784A
:103940005A011D4B13441B6823F07053BB60BB68C6
:1039500003F40043002B0FD1BA68184B13407A6868
:10396000928913437A6812799204134343F0C05347
:1039700043F40043BB6003E0BB6843F08053BB608B
:103980007B689B785A010C4B1344BA681A600C4B45
:1039900003F572331C331A680949FB681A4301F5B1
:1039A00072331C331A6000BF1437BD4680BC7047A9
:1039B0000009104000F813FC000B104000F8D3FF82
:1039C00000400C4080B485B000AF78607B681B7805
:1039D000002B0AD07B689B785A01124B13440022BB
:1039E0001A607B68DB89FB600AE07B689B785A0180
:1039F0000D4B134400221A607B68DB891B04FB60BB
:103A00000A4B03F572331C331A68FB68DB43074922
:103A10001A4001F572331C331A6000BF1437BD46DB
:103A200080BC704700091040000B104000400C4063
:103A300080B487B000AF78603960FF23FB757B6886
:103A40001B78002B1DD07B689B785A011F4B1344B9
:103A50001B683B613B6903F44023FB60FB68B3F5E3
:103A6000402F03D0FB68B3F5002F27D13B695B0DD6
:103A70009BB203F001039AB23B681A800023FB75E6
:103A80001CE07B689B785A01114B13441B683B6117
:103A90003B6903F44023FB60FB68B3F5402F03D080
:103AA000FB68B3F5002F09D13B695B0D9BB203F0B6
:103AB00001039AB23B681A800023FB7597F917300F
:103AC00018461C37BD4680BC704700BF0009104037
:103AD000000B104080B483B000AF0346FB71094B6C
:103AE00003F572331B6823F4FE63FA79120105496A
:103AF0001A4301F572331A6000BF0C37BD4680BC13
:103B0000704700BF00400C4080B487B000AF7860C1
:103B1000FF23FB747B681B78002B23D07B689B788A
:103B20005A01224B13441B6823F070537B617B695D
:103B300003F44023FB60FB68B3F5802F2ED07B6934
:103B4000002B03DA7B6943F080437B617B689B78C1
:103B50005A01164B13447A6942F400121A6000238A
:103B6000FB741BE07B689B785A01114B13441B6864
:103B700023F070537B617B6903F44023FB60FB6897
:103B8000B3F5802F0AD07B689B785A01084B134409
:103B90007A6942F400121A600023FB7497F913301B
:103BA00018461C37BD4680BC704700BF0009104056
:103BB000000B104080B487B000AF7860FF23FB7526
:103BC0007B681B78002B26D07B689B785A01284B9A
:103BD00013441B6823F070533B613B6903F440239B
:103BE000FB60FB68B3F5402F03D0FB68B3F5002FF3
:103BF00037D13B6943F080533B613B6923F40013A9
:103C00003B617B689B785A01194B13443A691A60EF
:103C10000023FB7525E07B689B785A01154B134404
:103C20001B6823F070533B613B6903F44023FB6046
:103C3000FB68B3F5402F03D0FB68B3F5002F10D11C
:103C40003B6943F080533B613B6923F400133B61C4
:103C50007B689B785A01074B13443A691A6000232A
:103C6000FB7597F9173018461C37BD4680BC704766
:103C700000091040000B104080B584B000AF03462F
:103C8000FB710123FB6011E00C4B1968FA681346C5
:103C90009B001344DB0030330B440433FA791146A4
:103CA0001846FFF705FEFB680133FB60FB68012B3C
:103CB000EADD00BF1037BD4680BD00BF0C0000200C
:103CC00080B584B000AF0346FB710123FB6015E0B3
:103CD000104B1968FA6813469B001344DB0030331D
:103CE0000B440433BB60BB6893F82030002B02D137
:103CF000B868FFF767FEFB680133FB60FB68012BC8
:103D0000E6DD97F90730184602F04AFC00BF10378D
:103D1000BD4680BD0C00002080B485B000AF0346D6
:103D2000FB710023BB6097F90730002B09DA184BB1
:103D30001A68FB7903F00F03134493F88430FB6097
:103D400008E0134B1A68FB7903F00F03134493F850
:103D50009430FB60FB68002B0BD00D4B1968FA68A0
:103D600013469B001344DB0030330B440433BB6029
:103D700008E0FB7903F00F03002B03D1044B1B6811
:103D80003433BB60BB6818461437BD4680BC7047EF
:103D90000C00002080B584B000AF78607B681B68A1
:103DA000BB607B681B6B9B68002B0BD07B681B6B1D
:103DB0009B68B8689847F860FB6813F1030F01D05F
:103DC000FB685AE04FF0FF33FB60BB681B7803F0E1
:103DD0006003DBB2002B4CD1BB685B780B2B4AD85D
:103DE00001A252F823F000BF193E0000233E00005C
:103DF000773E00002D3E0000773E0000373E000079
:103E0000413E0000773E00004B3E0000553E000062
:103E10005F3E0000693E0000786800F0ABF9F86092
:103E20002AE0786800F02EF8F86025E0786800F065
:103E300044FBF86020E0786800F06AFAF8601BE064
:103E4000786800F0D3F8F86016E0786800F07CF845
:103E5000F86011E0786800F0B0FAF8600CE078687B
:103E600000F042F9F86007E0786800F0A1FBF86024
:103E700002E000BF00E000BFFB6818461037BD46F7
:103E800080BD00BF80B586B000AF78604FF0FF33D3
:103E90007B617B681B683B613B69DB889BB2002BC5
:103EA00002D04FF0FF334BE03B691B78C3F30403B0
:103EB000DBB2002B02D0022B21D040E03B699B8873
:103EC0009BB2002B3AD13B695B889BB2012B35D169
:103ED0007B6893F82030042B04D07B6893F8203063
:103EE000052B2BD17B689B6ADB7903F02003002B29
:103EF00024D07B6800225A7700237B611EE03B6957
:103F00009B889BB2DBB21846FFF706FFF860FB68A0
:103F1000002B14D0FB689B78002B10D03B695B888A
:103F20009BB2002B0BD17B6893F82030052B06D178
:103F3000F868FFF73FFE03467B6100E000BF7B6946
:103F400018461837BD4680BD80B586B000AF786092
:103F50004FF0FF337B617B681B683B61224BFB604A
:103F60003B699B889BB2002B17D13B69DB889BB2D6
:103F7000012B12D13B695B889BB2002B0DD13B69B1
:103F80001B7823F07F03DBB2002B06D03B691B7844
:103F900003F01F03DBB2002B02D04FF0FF331EE013
:103FA0007B6893F82030042B0AD1FB6800221A703A
:103FB00000230122F9680020FFF7E0FB78610DE0A3
:103FC0007B6893F82030052B08D17B6803F11C0136
:103FD000002301220020FFF7D1FB78617B6918469E
:103FE0001837BD4680BD00BF6C01002080B58AB087
:103FF00000AF78600023FB8400233B624FF0FF3367
:10400000FB617B681B68BB61BB691B7803F01F0306
:10401000DBB2002B06D1BB691B7823F07F03DBB238
:10402000002B02D14FF0FF3359E0BB695B889BB294
:10403000DBB27B61BB695B889BB21B0A9BB2022B24
:104040000ED0032B1AD0012B30D17B69002B28D145
:104050007B685B6A3B627B685B6A1B78FB8425E05C
:104060007B69002B1FD17B689B6A3B627B689B6AE4
:104070009A78DB781B021343FB8417E07B689B7FF5
:104080001A467B69934210DA7B68DA6A7B699B0087
:1040900013441B683B613B693B623B691B78FB84B3
:1040A00003E000BF02E000BF00E000BFFB8C002B7C
:1040B00014D0FB8CFB81BB699A79DB791B0213431B
:1040C000BB81FA89BB899A4201D2FA8900E0BA8998
:1040D0000023396A0020FFF751FBF861FB6918469D
:1040E0002837BD4680BD000080B586B000AF78603F
:1040F0004FF0FF337B617B681B683B611C4BFB60AF
:104100003B699B889AB27B68DB7F9BB29A4217D24D
:104110003B69DB889BB2012B12D13B695B889BB268
:10412000002B0DD13B691B7823F07F03DBB2002B02
:1041300006D03B691B7803F01F03DBB2012B02D0D2
:104140004FF0FF330FE07B6893F82030052B09D147
:10415000FB6800221A7000230122F9680020FFF793
:104160000DFB78617B6918461837BD4680BD00BFDE
:104170006C01002080B586B000AF78604FF0FF334F
:104180007B617B681B683B61604BFB603B695B88C4
:104190009BB2002B0BD13B69DB889BB2022B06D173
:1041A0003B691B7823F07F03DBB2002B02D14FF079
:1041B000FF33A6E03B691B78C3F30403DBB2012B9A
:1041C0004DD0022B6DD0002B40F09A803B699B882C
:1041D0009BB2002B40F08F807B6893F82030042B3B
:1041E00005D07B6893F82030052B40F08480FB6875
:1041F00000221A807B685B7F002B06D0FB681B883F
:1042000043F002039AB2FB681A807B681B6BDB6881
:10421000002B0ED07B681B6BDB6898470346002B96
:1042200015D0FB681B8843F001039AB2FB681A8023
:104230000DE07B689B6ADB7903F04003002B06D01E
:10424000FB681B8843F001039AB2FB681A800023C5
:104250000222F9680020FFF791FA78614BE07B6851
:1042600093F82030042B04D13B699B889BB2002B30
:104270000CD07B6893F82030052B3ED13B699B889E
:104280009AB27B68DB7F9BB29A4236D2FB680022EF
:104290001A8000230222F9680020FFF76FFA786184
:1042A0002BE03B699B889BB2DBB21846FFF734FDDD
:1042B000B860BB68002B22D07B6893F82030042BB9
:1042C00003D1BB689B78002B04D07B6893F8203027
:1042D000052B14D1F968B868FFF7AAFB03467B6188
:1042E0007B69002B0BD100230222F9680020FFF725
:1042F00045FA786103E000BF02E000BF00E000BFC4
:104300007B6918461837BD4680BD00BF6C01002090
:1043100080B584B000AF78604FF0FF33FB607B68FE
:104320001B68BB60BB689B889BB2002B10D1BB682D
:10433000DB889BB2002B0BD1BB685B889BB27F2BC9
:1043400006D8BB681B7803F01F03DBB2002B02D03A
:104350004FF0FF332DE07B6893F82030032B11D111
:10436000BB685B889BB2002B02D00420FFF7CEF91C
:10437000BB685B889BB2DBB21846FFF7ABFB002340
:10438000FB6015E07B6893F82030042B10D1BB68EC
:104390005B889BB2002B02D10320FFF7B7F9BB6803
:1043A0005B889BB2DBB21846FFF794FB0023FB60EF
:1043B000FB6818461037BD4680BD80B584B000AF9D
:1043C00078604FF0FF33FB607B681B68BB60BB68A5
:1043D0009B889BB2002B12D1BB68DB889BB2002B61
:1043E0000DD1BB685B889BB21B0A9BB2002B06D128
:1043F000BB681B7803F01F03DBB2002B02D04FF029
:10440000FF3356E07B6893F82030042B25D1BB683E
:104410005B889BB2002B08D0BB685B889AB27B6834
:104420009B6A5B799BB29A4242D1BB685B889BB224
:10443000DAB27B681A77BB685B889AB27B689B6A42
:104440005B799BB29A4205D10120FFF715FC05204C
:10445000FFF75CF90023FB602AE07B6893F82030CB
:10446000052B25D1BB685B889BB2002B08D0BB68AD
:104470005B889AB27B689B6A5B799BB29A4217D140
:10448000BB685B889BB2DAB27B681A77BB685B88D3
:104490009BB2002B07D10420FFF738F96FF008001A
:1044A000FFF70EFC02E00020FFF7E6FB0023FB60B5
:1044B000FB6818461037BD4680BD80B586B000AF9A
:1044C00078604FF0FF337B617B681B683B613B6921
:1044D000DB889BB2002B02D04FF0FF3364E03B69D6
:1044E0001B78C3F30403DBB2002B02D0022B1CD0D9
:1044F00059E03B699B889BB2002B53D13B695B8899
:104500009BB2012B4ED17B6893F82030052B49D10B
:104510007B689B6ADB7903F02003002B42D07B6829
:1045200001225A7700237B613CE03B699B889BB268
:10453000DBB21846FFF7F0FBF860FB68002B32D0C7
:10454000FB689B78002B2ED03B695B889BB2002BCD
:1045500029D17B6893F82030052B24D1F868FFF728
:10456000D3FA03467B61FB68002283F820207B6935
:10457000002B18D1FB6893F82030002B13D0FB6878
:104580005B6A002B0FD0FB685B6ABB60FB68002294
:104590005A62FB685969FB681A69BB686FF00400CE
:1045A000984700E000BF7B6918461837BD4680BDBC
:1045B00080B584B000AF78604FF0FF33FB607B685C
:1045C0001B68BB60BB689B889AB27B68DB7F9BB231
:1045D0009A421AD2BB68DB889BB2002B15D1BB680C
:1045E0005B889BB2002B10D17B6893F82030052BA1
:1045F0000BD1BB681B7803F01F03DBB2012B04D186
:104600000020FFF739FB002300E0FB681846103755
:10461000BD4680BD80B483B000AF78607B681A1D52
:104620000F4B03F5723303F545731A600C4B03F51A
:10463000723303F540731B6823F03C427B68D3F868
:10464000A4301343064943F0004201F5723303F5E9
:1046500040731A6000BF0C37BD4680BC704700BF76
:1046600000400C4080B487B000AF7860FF23FB743B
:104670007B681B78002B23D07B689B785A01224BE8
:1046800013441B6823F070537B617B6903F4402360
:10469000FB60FB68B3F5802F2ED07B69002B03DA1B
:1046A0007B6943F080437B617B689B785A01164BA2
:1046B00013447A6942F400121A600023FB741BE071
:1046C0007B689B785A01114B13441B6823F070538D
:1046D0007B617B6903F44023FB60FB68B3F5802FAB
:1046E0000AD07B689B785A01084B13447A6942F4DC
:1046F00000121A600023FB7497F9133018461C3718
:10470000BD4680BC704700BF00091040000B104040
:1047100080B483B000AF7860396010497B6843F49F
:10472000002201F5723303F588731A600B4B03F511
:10473000723303F580731B6823F03C423B681343DC
:10474000064943F0044201F5723303F580731A60A1
:1047500000BF0C37BD4680BC704700BF00400C4016
:1047600080B483B000AF7860396010497B6843F44F
:10477000002201F5723303F544731A600B4B03F505
:10478000723303F540731B6823F03C423B681343CC
:10479000064943F0044201F5723303F540731A6091
:1047A00000BF0C37BD4680BC704700BF00400C40C6
:1047B00080B485B000AF0346FB710023BB6097F95E
:1047C0000730002B09DA184B1A68FB7903F00F0346
:1047D000134493F88430FB6008E0134B1A68FB79AC
:1047E00003F00F03134493F89430FB60FB68002B35
:1047F0000BD00D4B1968FA6813469B001344DB007D
:1048000030330B440433BB6008E0FB7903F00F0343
:10481000002B03D1044B1B683433BB60BB681846C4
:104820001437BD4680BC70470C00002080B584B0B2
:1048300000AF78607B681B78002B13D07B681B6906
:10484000FB607B689B897B817A89FB689A4228BFE1
:104850001A460C4B1B68D3F8A43019461046FFF7D4
:1048600057FF0AE07B689B891A46064B1B68D3F802
:10487000A43019461046FFF773FF00BF1037BD463E
:1048800080BD00BF0C00002080B584B000AF786010
:104890007B683433BB60BB6893F82030042B00F294
:1048A000138101A252F823F0BD480000254A000000
:1048B000A1490000954A0000954A0000BB6800220B
:1048C0001A61BB6800225A70844B00221A60844B24
:1048D00000221A707868FFF75DFAF860FB68B3F1A0
:1048E000FF3F0FD1BB6801221A70B868FFF7BAFE0C
:1048F000BB6800221A70B868FFF7B4FE7868FFF74B
:1049000089FEE6E0BB6893F82030022B04D0BB6838
:1049100093F82030012B03D1BB685B6A6F4A1360A8
:10492000BB6893F82030022B00F0D380BB681B6972
:10493000002B18D0BB681B697A681268D28892B2C3
:10494000934280F0C680BB681B69BA689289B3FB4A
:10495000F2F102FB01F29B1A002B40F0BA80BB6817
:1049600001225A70B5E07868FFF754FE5D4B0022D3
:104970001A60BB685B78002B0AD10023002200215B
:104980000020FEF7FBFEBB68032283F82020A0E096
:10499000BB68002283F82020BB6800221A7098E0D0
:1049A000BB681B69002B03D0B868FFF73FFF91E09D
:1049B0000023FB60494B1B68002B0AD0474B1B6848
:1049C000BA685169002200209847F860434B0022E2
:1049D0001A60FB68002B13D0BB6801221A70B868FC
:1049E000FFF740FEBB6800221A70B868FFF73AFE76
:1049F0007868FFF70FFEBB68002283F8202069E08B
:104A00007868FFF707FEBB68002283F820200023A8
:104A1000002200210020FEF7B1FEBB68032283F8CC
:104A2000202057E0BB681B69002B03D0B868FFF754
:104A3000FDFE4FE0BB685B78012B11D1BB685B6961
:104A4000284A1360BB68002283F82020002300223C
:104A500000210020FEF792FEBB6802225A7039E066
:104A6000BB685B78002B03D1BB685B691D4A136090
:104A7000BB68002283F820200023002200210020B0
:104A8000FEF7ACFD164B01221A70BB68042283F8B6
:104A900020201FE0124B1B78002B02D07868FFF714
:104AA000B9FD0E4B1B68002B06D00C4B1B680D4A42
:104AB0001168002200209847BB68002283F820205C
:104AC000BB6800221A7005E0A021074801F0AFF989
:104AD00000E000BF00BF1037BD4680BD7001002060
:104AE0007401002078010020D07B000080B584B0E4
:104AF00000AF0346FB71FB791846FFF759FEF860DB
:104B0000FB6893F82030012B04D0FB6893F8203029
:104B1000022B15D1FB68002283F82020FB685B6A1A
:104B2000002B12D0FB685B6ABB60FB6800225A62F4
:104B3000FB685969FB681A69BB680020984704E064
:104B400040F23311034801F072F900BF1037BD463F
:104B500080BD00BFD07B000080B483B000AF0346AF
:104B6000FB71FB799B011A460A4B42F0200203F5C8
:104B7000703310331A6000BF064B03F570331033E7
:104B80001B6803F02003002BF6D100BF0C37BD4695
:104B900080BC704700400C4080B483B000AF0A4B2B
:104BA00003F5703314331B687B60074B03F57033D8
:104BB00018331B687A6813407B607B6818460C3793
:104BC000BD4680BC704700BF00400C4080B485B03B
:104BD00000AF7860114B03F57033183300221A6070
:104BE0000E4B03F5703314334FF0FF321A600C4B49
:104BF000FB607B681B6B1B69002B03D0FB6843F0D9
:104C00000803FB60054B03F570331833FA681A602C
:104C100000BF1437BD4680BC704700BF00400C4049
:104C200000380C8080B400AF084B03F570331833A4
:104C300000221A60054B03F5703318334FF4C0524D
:104C40001A6000BFBD4680BC704700BF00400C40EA
:104C500080B483B000AF7860124B03F57233043335
:104C60001B6823F4F0630F4943F4807201F572333B
:104C700004331A600B4B03F5723303F540731B6862
:104C800023F03C427B681343064943F0044201F59C
:104C9000723303F540731A6000BF0C37BD4680BC09
:104CA000704700BF00400C4080B483B000AF0A4B97
:104CB00003F5723318331B687B60074B03F57233BF
:104CC0001C331B687A6813407B607B689BB2184674
:104CD0000C37BD4680BC704700400C4080B483B0A8
:104CE00000AF0A4B03F5723318331B687B60074B28
:104CF00003F572331C331B687A6813407B607B6852
:104D00001B0C18460C37BD4680BC704700400C4059
:104D100080B485B000AF78600A4B03F5723310336E
:104D20001B68FB607B689B785A01074B13449B68A8
:104D3000BB60BA68FB68134018461437BD4680BC98
:104D4000704700BF00400C400009104080B485B09F
:104D500000AF78607B689B785A01094B13449B68CD
:104D6000FB60084B03F5723314331B68FA68134079
:104D7000FB60FB6818461437BD4680BC704700BF17
:104D8000000B104000400C4080B483B000AF78604E
:104D90007B68002283F83420164B03F5723303F549
:104DA00044734FF0C0421A607B681A1D7B681A601A
:104DB0007B681A680F4B03F5723303F545731A606D
:104DC0000C4B03F5723303F540731B6823F03C4230
:104DD0007B68D3F8A4301343064943F0044201F53D
:104DE000723303F540731A6000BF0C37BD4680BCB8
:104DF000704700BF00400C4080B485B000AF034650
:104E0000FB710023BB6097F90730002B09DA184BC0
:104E10001A68FB7903F00F03134493F88430FB60A6
:104E200008E0134B1A68FB7903F00F03134493F85F
:104E30009430FB60FB68002B0BD00D4B1968FA68AF
:104E400013469B001344DB0030330B440433BB6038
:104E500008E0FB7903F00F03002B03D1044B1B6820
:104E60003433BB60BB6818461437BD4680BC7047FE
:104E70000C00002080B584B000AF0023FB72FDF76A
:104E800099F87860654B1B78DBB2002B15D0644B2A
:104E9000DB6A03F00403002B05D1624B1B68604AF8
:104EA00003F0140313625E4B20225A6200BF5C4B76
:104EB000DB6A03F40043002BF9D05B4B5B69002BEA
:104EC00045D0594B9B6803F00103002B14D0564B7F
:104ED00001221A61544B5B6803F00103002B0BD0D5
:104EE0000123FB7200F0DCFC0346002B01D0FFF72E
:104EF00099FE0220FEF70AFC4B4B9B6803F002036D
:104F0000002B24D0484B02221A61474B5B6803F008
:104F10000103002B1BD10123FB72404B1B78DBB23A
:104F200083F00103DBB2002B0CD03F4B03F5703351
:104F3000183300221A603C4B03F5703314334FF0E2
:104F4000FF321A6000F056FB0020FEF7DFFBFFF790
:104F500023FEF860FB68002B03D17868FDF739F871
:104F600058E0FB6803F40003002B05D000F002FAC0
:104F7000FB6823F40003FB60FB68002B05DA00F0FC
:104F800001FBFB6823F00043FB60FB6803F4006354
:104F9000002B05D000F0C4FAFB6823F40063FB602B
:104FA000FB6803F00803002B05D000F01BFAFB6838
:104FB00023F00803FB60FB6803F40053002B05D0CB
:104FC00000F034F8FB6823F40053FB60FB6803F443
:104FD0008053002B05D000F029FAFB6823F480539E
:104FE000FB60FB6803F48023002B05D000F038F849
:104FF000FB6823F48023FB60FB6803F40023002B91
:1050000005D000F0B5F8FB6823F40023FB60786856
:10501000FCF7DFFF1037BD4680BD00BF7C010020DC
:1050200000800C40C001002000400C4080B500AF63
:1050300000F036FC094B1B68D3F8A4301846FFF784
:1050400007FE064B1B68002283F85420034B1B68A5
:105050001846FFF7BBFD00BF80BD00BF0C0000205D
:1050600080B584B000AFFEF76DF80346062B06D17D
:105070003D4B1B6893F821301846FEF747FBFFF7BE
:1050800013FE03463B810023FB6001237B8164E028
:105090003A897B8913409BB2002B58D0FB685BB2E6
:1050A00063F07F035BB2DBB21846FFF7A5FE7860C2
:1050B0007868FFF72DFE38603B6803F00103002B92
:1050C00045D0FB685A01294B134401229A60FB68C2
:1050D000002B24D17B681B697A68928993420ED990
:1050E0007B681B697A6892899A1A7B681A617B6867
:1050F0005B697A6892891A447B685A6109E07B6827
:105100005A697B681B691A447B685A617B68002274
:105110001A61154B1B681846FFF7B6FB17E07B6852
:105120001A69FB685901114B0B441B69C3F3120345
:10513000D21A7B685A617B681A697B685B69D21AEC
:105140007B681A617B68DB781846FFF7CFFCFB6849
:105150000133FB607B895B007B81FB68062B97DD5D
:1051600000BF1037BD4680BD0C0000200009104074
:1051700080B584B000AFFDF7E5FF0346062B06D1EE
:10518000204B1B6893F821301846FEF7BFFAFFF753
:10519000A5FD03463B810023FB6001237B812AE0C0
:1051A0003A897B8913409BB2002B1ED0FB68DBB28F
:1051B0001846FFF721FE78607868FFF7C7FD386072
:1051C0003B6803F00103002B08D0FB685A010E4B2B
:1051D000134401229A60786800F018F83B6803F0E5
:1051E0000803002B01D000F05FF8FB680133FB607F
:1051F0007B895B007B81FB68062BD1DD00BF10370C
:10520000BD4680BD0C000020000B104080B582B070
:1052100000AF78607B689B78002B24D17B681B698A
:105220007A68928993420ED97B681B697A68928961
:105230009A1A7B681A617B685B697A6892891A445A
:105240007B685A6109E07B685A697B681B691A446C
:105250007B685A617B6800221A61114B1B681846F3
:10526000FFF712FB18E07B689A697B689B7859010D
:105270000C4B0B441B69C3F31203D21A7B685A61AF
:105280007B681A697B685B69D21A7B681A617B68E4
:10529000DB781846FFF72AFC00BF0837BD4680BD03
:1052A0000C000020000B104080B582B000AF2F4BE7
:1052B00003F5723303F542731B6803F04003002BC0
:1052C00012D02A4B03F5723303F5427340221A6061
:1052D000264B03F5723303F545731B68A3F10802EF
:1052E000234B1B681A6019E0204B03F5723303F55A
:1052F00044731B685B0F03F003037B607B68032B25
:1053000001D102237B601A4B19687B68C3F102024A
:10531000174B1B68D2000A4404321A60134B03F582
:10532000723303F544731B68104943F0C04201F522
:10533000723303F544731A600D4B1B681A1D0B4B37
:1053400003F5723303F545731A60084B03F57233A6
:1053500003F5427308221A60054B1B681846FFF7D5
:1053600093FA00BF0837BD4680BD00BF00400C4027
:105370000C00002080B500AF184B1B78DBB283F027
:105380000103DBB2002B06D0154B03F57033143349
:105390004FF400021A6000F083FA0346002B06D097
:1053A0000F4B03F5703314334FF400021A600C4BAB
:1053B0005B6803F00103002B01D100F01BF9084BDF
:1053C0005B6803F00103002B03D00320FEF79EF976
:1053D00002E00020FEF79AF900BF80BD7C010020AA
:1053E00000400C4080B500AF0E4B03F57033143312
:1053F00008221A600C4B1B681B6B1B69002B0FD01B
:10540000094B1B681B6B1A69064B03F57233083393
:105410001B681B0A9BB2C3F30D039BB2184690474F
:1054200000BF80BD00400C400C00002080B582B061
:1054300000AF374B03F5723304331B68344923F450
:10544000F06222F0010201F5723304331A60002089
:10545000FFF782FB00237B6009E07B685A012D4B3C
:1054600013444FF0FF329A607B6801337B607B68A6
:10547000062BF2DD00237B6009E07B685A01264B96
:1054800013444FF0FF329A607B6801337B607B6886
:10549000062BF2DD1E4B03F572331C334FF0011265
:1054A0001A601B4B03F57233143309221A60184B30
:1054B00003F57233103301221A60154B03F5723372
:1054C0001B68134923F4FE6201F572331A60134B13
:1054D0001B681846FFF758FC104B1B681846FFF76F
:1054E00075FB0E4B1B681B6B1B68002B04D00B4B12
:1054F0001B681B6B1B6898470320FEF707F96FF0CA
:105500000A0001F04DF800BF0837BD4680BD00BF5E
:1055100000400C4000091040000B10400C0000201F
:1055200080B582B000AF164B03F5703314334FF4DF
:1055300000621A606FF0090001F032F8FDF702FE18
:105540000346002B02D10220FEF7E0F8FDF7FAFD3A
:105550000346FB71FB79022B08D0FB79032B05D0A6
:10556000FB79042B02D0FB79052B04D100F042F823
:105570000620FEF7CBF800BF0837BD4680BD00BF50
:1055800000400C4080B500AF174B1B78DBB283F0B6
:105590000103DBB2002B06D0144B03F57033143338
:1055A0004FF000421A6000F07BF90346002B12D046
:1055B0000E4B03F5703314334FF000421A600C4B5E
:1055C0001B681846FFF7E0FB094B1B68D3F8A430B3
:1055D0001846FFF73DFB064B1B6893F82130184631
:1055E000FEF794F800BF80BD7C01002000400C4015
:1055F0000C00002080B485B000AF904B1B78DBB26C
:1056000083F00103DBB2002B00F011818B4B0122F0
:105610001A708B4B03F5703318331B68894A13607B
:10562000874B03F570331B68874A1360844B03F57F
:10563000703308331B68854A1360814B03F5703360
:105640000C331B68824A13607D4B03F5703324339F
:105650001B68804A13607A4B03F5703328331B684C
:105660007D4A1360764B03F572331B687B4A1360E7
:10567000734B03F5723304331B68794A1360704B24
:1056800003F572331C331B68764A13606C4B03F5C9
:10569000723310331B68744A1360694B03F572331D
:1056A00014331B68714A1360654B03F5733303F5BC
:1056B00000731B686E4A13600023FB604CE06D4B67
:1056C0001968FB685A1C13469B001344DB003033F7
:1056D0000B440433BB60BB689B787B60BB681B7862
:1056E000002B1BD07B685A01634B13441A68634933
:1056F000FB6841F823207B685A015F4B13441A6909
:105700005F49FB6841F823207B685A015A4B1344D8
:105710005A695C49FB6841F823201AE07B685A010A
:10572000594B13441A685549FB6841F823207B689C
:105730005A01554B13441A695149FB6841F823201B
:105740007B685A01504B13445A694E49FB6841F833
:105750002320FB680133FB60FB68002BAFDD0023D7
:10576000FB600BE0FB689A00484B13441A684849F9
:10577000FB6841F82320FB680133FB60FB68002BCA
:10578000F0DD2F4B03F572331B6823F07C432C496B
:1057900043F0805201F572331A60294B03F57233DE
:1057A0001B68274943F0080201F572331A60244B45
:1057B00003F570331833374A1A60214B03F57333FE
:1057C00003F500731B681E4943F0040201F57333AF
:1057D00003F500731A601A4B03F5733303F5007376
:1057E0001B68174943F0080201F5733303F5007392
:1057F0001A60134B03F5733303F500731B681049EC
:1058000043F0010201F5733303F500731A60224B74
:10581000DB6A224A1360204B60225A6200BF1E4B93
:10582000DB6A03F40033002BF9D0012300E00023EE
:1058300018461437BD4680BC704700BF7C0100206D
:1058400000400C40800100208401002088010020DD
:105850008C0100209001002094010020980100207C
:105860009C010020A0010020A4010020A80100202C
:10587000AC0100200C00002000091040B001002005
:10588000B4010020B8010020000B104004011040BA
:10589000BC0100200000808000800C40C00100207E
:1058A00080B500AF584B1B78DBB2002B00F0A8800E
:1058B000554B00221A7004211120FCF771F9534B4B
:1058C0001B6803F00103002B02D1514B02221A6224
:1058D000504B03F5733303F500731B684D4923F0F8
:1058E000010201F5733303F500731A60494B03F5A8
:1058F000733303F500731B68464923F00C0201F56E
:10590000733303F500731A60424B03F5703314339D
:105910001A68414B1340002B0FD1404B1B683D4987
:1059200043F0010201F5723304331A60394B3B4AEC
:10593000126803F5723304331A60364B384A126822
:1059400003F570330C331A60324B364A126803F594
:1059500072331A6000F07AF82E4B334A126803F55E
:10596000733303F500731A602A4B304A126803F54B
:10597000723314331A60274B2D4A126803F57233C1
:1059800010331A60234B2B4A126803F572331C3311
:105990001A60204B214A126803F5723304331A60EF
:1059A0001C4B254A126803F5703328331A60194BD3
:1059B000224A126803F5703324331A60154B204ACB
:1059C000126803F5703308331A60124B1D4A1268CF
:1059D00003F570331A600F4B1B4A126803F57033DE
:1059E00018331A600B4B03F5723304331B680949F3
:1059F00043F4006201F5723304331A60012300E0BE
:105A00000023184680BD00BF7C010020C00100209B
:105A100000800C4000400C40000080809C01002071
:105A20008C01002098010020AC010020A80100207A
:105A3000A4010020A001002094010020900100207A
:105A400088010020840100208001002080B485B0FE
:105A500000AF0023FB600BE0FB689A00434B13444C
:105A60004349FA6851F822201A60FB680133FB6051
:105A7000FB68002BF0DD0023FB606FE03D4B1968F5
:105A8000FB685A1C13469B001344DB0030330B4465
:105A900004337B607B689B783B60374AFB6852F835
:105AA000233023F07053BB60334AFB6852F8233035
:105AB00003F48033002B04D0BB6843F00053BB6079
:105AC00003E0BB6843F08053BB602B4AFB6852F88D
:105AD000233003F40033002B04D0BB6843F0006391
